:020000040800F2
:100000000018002029290008A9140008AB140008D2
:1000100000000000000000000000000000000000E0
:10002000000000000000000000000000AD14000807
:100030000000000000000000AF140008B114000828
:10004000A929000800000000A9290008A929000822
:10005000A9290008A9290008A9290008A929000838
:1000600000000000A9290008A9290008A929000802
:10007000A9290008A9290008A929000800000000F2
:10008000A92900080000000000000000A9290008BC
:1000900000000000A9290008A9290008A9290008D2
:1000A00000000000A929000800000000A92900089C
:1000B000B91400080000000000000000A929000891
:1000C00010B5064C2378002B07D1054B002B02D02E
:1000D000044800E000BF0123237010BD740000201D
:1000E00000000000E82A0008044B10B5002B03D0E4
:1000F0000349044800E000BF10BDC04600000000F6
:1001000078000020E82A0008002243088B4274D3BC
:1001100003098B425FD3030A8B4244D3030B8B4208
:1001200028D3030C8B420DD3FF22090212BA030C11
:100130008B4202D31212090265D0030B8B4219D3F2
:1001400000E0090AC30B8B4201D3CB03C01A524112
:10015000830B8B4201D38B03C01A5241430B8B425A
:1001600001D34B03C01A5241030B8B4201D30B0343
:10017000C01A5241C30A8B4201D3CB02C01A52416A
:10018000830A8B4201D38B02C01A5241430A8B422D
:1001900001D34B02C01A5241030A8B4201D30B0216
:1001A000C01A5241CDD2C3098B4201D3CB01C01A30
:1001B000524183098B4201D38B01C01A524143093A
:1001C0008B4201D34B01C01A524103098B4201D328
:1001D0000B01C01A5241C3088B4201D3CB00C01A95
:1001E000524183088B4201D38B00C01A524143080D
:1001F0008B4201D34B00C01A5241411A00D2014632
:10020000524110467047FFE701B5002000F006F8A4
:1002100002BDC0460029F7D076E770477047C04658
:1002200003685A0004D5802212061343C018704791
:100230005B005B08FAE7C046F8B557464546DE4620
:100240004E469046E0B50700002924D04B1E9A4642
:10025000994600239B465B464B44DC0FE418641030
:10026000E5007E193000FFF7DBFFA2450CD04045CA
:100270000CD8280008303818FFF7D2FF0138404565
:100280000AD2631C9B46E6E7404505D9A34502D048
:10029000631E9946DFE700263000F0BCBB46B2463D
:1002A000A946A046F8BDC0460300012805D0022893
:1002B00007D00020002B02D070470348FCE703481A
:1002C000FAE70348F8E7C046D1090008C509000865
:1002D000DD09000830B5234B050083B08C1E002BD0
:1002E00026D0200001A900E000BF00281CD0019901
:1002F0002200FFF7A1FF041E16D0FFF791FF6368ED
:10030000A864012B2AD0201D002B23DBFFF788FFD8
:100310000023E8642B650368002B0FDBFFF780FFE9
:100320002861002003B030BD002309202B61F9E7CC
:100330000D480E49091AC9100191D9E71801000F9B
:10034000FFF7B2FF2861431E9841082340429843BB
:100350000930E7E70123E8642B65DCE7002305208B
:100360002B61DFE700000000842B00089C2C0008B4
:10037000036810B50400DA0705D49B070AD5483096
:1003800000F080FC23685A070AD51A070FD5DB0650
:1003900015D510BD483000F071FC23685A07F4D41D
:1003A0002000D03000F072FC23681A07EFD4200040
:1003B0005130FF3000F06EFC2368DB06E9D42000EA
:1003C000D130FF3000F06AFCE3E7C04609207047F7
:1003D00003000068002800D0C01870477047C0466E
:1003E00070B504000D002000296CFFF773FF002892
:1003F00011D12B6C2A0063612100012023699847E9
:100400000828F0D0072806D10020296CFFF7E6FF66
:10041000281D00F01DFC02F00DFBC046F0B5CE46D5
:10042000474680B5C368304C9846A54483690400AC
:1004300016000431402205A8994602F002FB002371
:10044000049325E0F022149B5200636104A97CA868
:10045000039302F0F6FA2100280023697CAA98474A
:100460008A9B0500039315934B46019304AB0093BD
:100470002200230031000120C047002822D1F022B1
:100480007CA9520004A802F0DCFA0026082D22D133
:10049000149B200019000393FFF71CFF0936070087
:1004A000F5B20028CED0129B1021039315934B4632
:1004B000019304AB00932200230001202943C0478D
:1004C000002800D009273800F5239B009D44C0BCBC
:1004D000B946B046F0BD072DF4D130001499FFF7AE
:1004E0007DFF05A800F0B4FB2CFCFFFF406C7047BB
:1004F00070B5CB6BFAB00B6405000E0040220431DE
:1005000003A802F09EFA01235B42029306E0290051
:100510002B6902AA9847040008280AD1129B2800D8
:1005200019000193FFF7D6FE0028F0D009207AB019
:1005300070BD02A8FFF71CFF062CF7D13100280080
:10054000FFF74EFF10B58261DA6BC1601A641900C3
:100550000022FFF763FF10BD436970B50B64C368E9
:1005600004000D00002B13D10A00236901000220B2
:100570009847072805D008280FD129002000FFF749
:100580002FFF0020296CFFF729FF281D00F060FBDA
:100590000122FFF743FF02F04DFA02F04BFAC0468A
:1005A000C36810B5002B05D0CB6B00220B64FFF79E
:1005B00035FF10BDFFF79CFFFBE7C0467047C04604
:1005C0008368010010B5002B01D00120984710BDB1
:1005D000012915D00AD8002B10D10F2A0ED892006D
:1005E00082185268009B00201A6006E0012003393F
:1005F000C9B2884280414042013070470220FCE786
:100600000120FAE700B585B003AB0A000093002192
:100610000023FFF7DDFF039805B000BD012915D0C9
:100620000AD8002B10D10F2A0ED8009B92001B680D
:1006300082185360002006E001200339C9B28842C5
:1006400080414042013070470220FCE70120FAE778
:1006500000B585B003AB039200930A00002300218C
:10066000FFF7DCFF05B000BD70B51A4CD36BA54495
:10067000136405000C0019A8111D402202F0E1F9D5
:1006800001235B42189314E00C2118A802AAFFF77B
:10069000DFFF210018A8A847002812D1069B18AA3E
:1006A00002A9083001939847060005280AD00928B6
:1006B00007D0289B02A819000193FFF70BFE002822
:1006C000E2D0092618A8FFF753FE300090239B00C4
:1006D0009D4470BDC0FDFFFFF0B557469246032212
:1006E00045464E46DE4699461300E0B58846CD6C39
:1006F000494689B00340009308CD0695002900D1F2
:1007000080E01A0C1B040593022304A90B73FD332C
:1007100013409B004A73ED18009B022B01D1434606
:100720009D6B43461B6DDB070FD5504605A900F0B6
:100730005BFB002801D1082000E0092009B0F0BCD3
:10074000BB46B246A946A046F0BD2F68002FECD0AC
:1007500008230340029300230193013354469B4630
:100760004646BA464B46022B49D02B886F889A469C
:1007700004355A463B009343B26C0F21904620004B
:100780009844FFF73FFF0023804506D853465A465A
:100790009343434498429B415B4202227F001740AF
:1007A000594652460A401743012F30D0022F4CD0F1
:1007B000002FC2D1009A002A02D0002B00D09BE06B
:1007C00004352B689A46002BCCD1200005A9A246FF
:1007D00000F00AFB0028B0D1019B002BABD00F2109
:1007E0005046FFF70FFF0E2102005046FFF730FF83
:1007F00050460F21724AFFF72BFF07209EE76F68D4
:100800000835B6E71B02059304AB9A8184E7009A8A
:10081000002A49D1002B16D02B68DF0F6B689A1C79
:1008200000D18AE7320058320492013300D1B6E099
:10083000281DFFF7CDFD3A00010004AB300000E0B9
:1008400000BF00286CD10835BBE72A680099570023
:100850007F0800290DD1002B04D0029B002B72D001
:10086000002F3CD0002A00DA04350137BF00ED1913
:10087000A7E7336A0D2120009846FFF7C3FE8045A5
:1008800001D02A68EEE7B36A9D42FAD10023F362F1
:10089000043333632B1DB76273632B68002B00DABC
:1008A00087E001230193E0E70D212000376AFFF77D
:1008B000A9FE8742C7D1B36A9D42C4D1B046A246C1
:1008C0002800FFF7ADFC0F2102005046FFF7C0FEE5
:1008D000504642460021FFF7BBFE07202EE7B046F8
:1008E000A2460D215046FFF78DFE4346049A18623A
:1008F0005A6206209D6221E72800FFF791FC04352B
:10090000A246B5630400300000E000BF002800D11B
:1009100013E7504622000F21FFF79AFE07200DE74C
:10092000A2460D2104005046FFF76CFEB04633008E
:100930003062022C39D1049A2C33F262736243463E
:1009400006209D62FAE62B1D9A46002398465833EE
:100950009C4621004A46B4445446A9468A463D0076
:1009600003924746E0460EE0434620000493FFF71B
:100970002FFD0022010004AB300000E000BF013772
:100980000434002804D1AF42EED14D46B046A8E76A
:100990002F004D46039B544699462A6862E70D2175
:1009A0002000FFF72FFEB04630624346049A5A6299
:1009B000C5E7781C8000B046A246281881E7C046EB
:1009C0000000000010B50023FFF786FE10BDC046F2
:1009D00010B50123FFF780FE10BDC04610B50223FD
:1009E000FFF77AFE10BDC046F0B5CE46474680B54B
:1009F000050014001E00C3B0032944D020D80029EC
:100A000049D0012941D1130C14049846230C99466E
:100A1000012E00D17AE0052E37D144464C44202CDB
:100A200033D843460F2B00D8B5E04C46002C00D0FD
:100A3000C2E04A46A96B20AF002A22D000247FE002
:100A4000042922D1002B20D1102A1ED8102203689D
:100A50001A4200D0C7E020AF380000F021F901268B
:100A600039000023AA6B30009840044201D001CA2B
:100A7000086001330431042BF5D13800AA6300F07B
:100A80000DF9002002E0032B1CD0022043B0C0BCB3
:100A9000B946B046F0BD002BF7D10023012716045C
:100AA000826B360C011D38009840064201D001CA05
:100AB000086001330431102BF5D10020A304E5D4E4
:100AC000AA63E3E71404160C240C3319102BDCD8AA
:100AD000082203681A4200D08CE020AF380000F0F2
:100AE000DBF8F600AB6B002C0AD0F61AE400321FDC
:100AF0001C19BA181900096804339950A342F9D196
:100B00003800AB6300F0C6F80020BFE743464B4413
:100B1000102BBAD843460F2BB7D82B681E4206D0ED
:100B20000322280093432B60483000F0A9F820AF3F
:100B3000380000F0A5F84A460024A96B002A61D0CD
:100B40004346DB00FF180023D200C858F850043396
:100B50009A42FAD18918002C0FD06F4640461028CF
:100B600000D2102000231038C0003818E200CF58FF
:100B7000C75004339342FAD1C918012E41D04346DD
:100B8000A9630F2B45D9002C00D17AE7684600F005
:100B90007DF800207AE7102C46D9103C01222B6802
:100BA0001A4207D093430222280013432B60483097
:100BB00000F06AF8002C39D004222B681A422CD19C
:100BC00043460F2B03D820AF380000F05DF86F4686
:100BD000380000F05DF810224346A96BD21A002AB3
:100BE000BCDD20AFACE793430360D130FF3000F0B1
:100BF00057F830E7934303605130FF3000F04CF872
:100C00006BE720AF04313800A96300F037F800200B
:100C10003CE720A800F036F8B5E7280093432B60A6
:100C2000D03000F035F8CBE70024B7E743460F2B70
:100C300000D9FEE620AF380000F026F84A46A96B3E
:100C4000002A00D0FAE6380000F01CF800201DE76A
:100C50000100343138C9043B9C461D60A6460100A2
:100C600020313CC990469946A246AB460100083166
:100C7000FCC941680068E54600BDC0467047C046F3
:100C80007047C0467047C0467047C0467047C04670
:100C90007047C0467047C0467047C0467047C04660
:100CA0007047C04601B401A801B585B0FFB408A8DB
:100CB00041464A4653465C4665463EC001A83EC88A
:100CC0000F98009000230CB401A9FFF711FC109BB2
:100CD00012B0184701B401A801B585B0FFB408A847
:100CE00041464A4653465C4665463EC001A83EC85A
:100CF0000F98009000230CB401A9FFF72DFC109B66
:100D000012B0184701B401A801B585B0FFB408A816
:100D100041464A4653465C4665463EC001A83EC829
:100D20000F98009000230CB401A9FFF739FC109B29
:100D300012B0184701B401A801B585B0FFB408A8E6
:100D400041464A4653465C4665463EC001A83EC8F9
:100D50000F98009000230CB401ABFFF7F3FB109B3E
:100D600012B0184701B401A801B585B0FFB408A8B6
:100D700041464A4653465C4665463EC001A83EC8C9
:100D80000F98009000230CB401AAFFF76DFC109B94
:100D900012B01847027A0300002A0BD1427A002AC7
:100DA0000FD0013A42724268111D4160032112685E
:100DB000017202E0013A02720268100E12021A6019
:100DC0007047B020FCE7C04600B585B003AB009388
:100DD0000C2200230021FFF7FBFB039805B000BDA8
:100DE00010B5FFF7F1FF10BDF0B54E46454657462A
:100DF000DE460023E0B587B003930F339846083BE7
:100E0000994680231B0305000E009A463000FFF729
:100E1000C1FF0400B02800D1C1E0030629D50300BA
:100E200042469343DBB2802B53D0902B3DD0A02B76
:100E30006BD0B02B00D17EE0C02B00D195E0030039
:100E40004A469343DBB2D02B0AD1534602400132CB
:100E50001A43052301212800FFF7C6FD0028D5D03D
:100E60000924200007B0F0BCBB46B246A946A04604
:100E7000F0BDFF23820013401F1D05AB9B4600936E
:100E80000D22002300212800FFF7A2FB630639D4BE
:100E9000059B9C4667445B460597009300230D2203
:100EA00000212800FFF7BAFBB0E7833B03400D2B7E
:100EB000D6D005AF02400023002128000097FFF79D
:100EC00087FB00230D22002128000097FFF7A6FBD7
:100ED0009CE704023000FFF75DFF802720433F02BC
:100EE000B842BDD004010005020C002300212800F7
:100EF000FFF77AFD0028B3D13C4200D186E70123F9
:100F0000039383E7059BDF1BC5E7FF234A461B01CD
:100F10001900824311410A001A40030702D58023B9
:100F2000DB011A43002300212800FFF75DFD0028A4
:100F300000D16BE794E7B12845D0B22800D19FE0FB
:100F4000B32855D0FC230340B42B00D188E74A4690
:100F50005346024001321A43012101232800FFF7C2
:100F600043FD002800D151E77AE7C6284BD0C728B7
:100F70005DD003004A469343DBB2C02B6CD0C82837
:100F800071D0C92800D06BE73000FFF703FFF023D2
:100F900002031B03134042460240013258E7039B01
:100FA0000024002B00D05CE705AE0E2200212800B3
:100FB0000096FFF70DFB00230F220021280000966A
:100FC000FFF72CFB4DE73000FFF7E4FE021E00D1D7
:100FD00046E7030041468B43DBB2002B00D03FE7DE
:100FE00000212800FFF700FD002800D10EE737E7B9
:100FF0003000FFF7CFFEF02302031B0313404246ED
:1010000002400132A7E73000FFF7C4FEF0230203DD
:101010001B0313404246024001321A4303230321BB
:101020002800FFF7E1FC002800D1EFE618E73000C8
:10103000FFF7B0FE021E00D112E7030041468B43CA
:10104000DBB2002B00D00BE704212800FFF7CCFC1B
:10105000002800D1DAE603E74346A0221C40013411
:1010600012032243DAE73000FFF794FE4346020002
:101070009A43D2B210321840120301300243E8E61C
:1010800005AB00939B460D22002300212800FFF7AB
:101090009FFA3000FFF77EFE03061AD57F27B03C8B
:1010A000059B3840A0409C466044059030000734C2
:1010B000FFF770FE0306F3D481217F2389008C465D
:1010C0000340A340059A62449B1805935B46009336
:1010D000E4E60224F0E7C046030000B5DA6C85B010
:1010E00053680800083219020191029269460322EE
:1010F0001B0E0A734B7301A9FFF776FE05B000BD06
:1011000010B5FFF76DFE806C10BDC04610B5FFF73F
:1011100067FEC26CD07902308000101810BDC04646
:10112000F0B5C64600B588B01422002103A801F02E
:1011300067FC214B596980200003014359615A69BA
:1011400002400092009A596980208002014359614F
:101150005A6902400192019A5A698021C9020A43E0
:101160005A615B690B400293029B8024A401134BDC
:10117000984600222100180000F07AFBE027FF00CB
:101180000F4D00223900280000F072FB0394012665
:10119000049600240594069403A9404600F0A2FAA0
:1011A000039704960594069403A9280000F09AFA80
:1011B00008B080BCB846F0BD0010024000080048EE
:1011C0000004004872B6FEE710B50D480D4B0360F1
:1011D000E1235B02436080235B0183600023C360E3
:1011E0008022D20002610C2242618361C3610362EA
:1011F000436201F0BDFA002800D110BDFFF7E2FF05
:10120000900000200044004000B591B03022002141
:1012100004A801F0F5FB10220021684601F0F0FB64
:1012200002230493013B07930F33089304A800F0B3
:101230002DFB00280DD10723009300230193029377
:1012400003930021684600F0B3FD002803D111B0DC
:1012500000BDFFF7B7FFFFF7B5FF10B500F06EF95F
:10126000FFF7D2FFFFF75CFFFFF7AEFF00F002F8D9
:10127000FEE7000070B58026B6000C4D012231005B
:10128000280000F0F5FA012209490A4801F012FB92
:10129000FA24E400200000F073F900223100280055
:1012A00000F0E6FA200000F06BF9E4E700040048E3
:1012B000240100209000002070B505000E000024DD
:1012C000002011E05208013BDBB2002B09D00100E5
:1012D00051404008C907F5D5742149424840C0B281
:1012E000F0E701350134E4B2B44202D22A7808238F
:1012F000EBE770BD00B583B00A00094B1968009197
:101300001B7969460B7101F083FB002801D003B003
:1013100000BD80218901034800F0B0FAF7E7C0461C
:10132000002B00080008004830B585B004784578E7
:10133000002305E0C218917801AAD1540133DBB231
:10134000A342F7D3210001A8FFF7B6FFA84201D0BE
:1013500005B030BD210001A8FFF7CCFFF8E7000081
:1013600010B50268214B9A4200D010BD204B1B687B
:10137000092B03D91E4B012252421A601C4B1B68D9
:10138000002B0ED11B4A12781B490A701B49CA5404
:101390000133174A136001221649194801F08AFAED
:1013A000E3E7154A1278934207DC124A1178134A90
:1013B000D15401330E4A1360EDE70132934209D054
:1013C0000133E8DA0B4B1B78AA2BE4D1084B00223F
:1013D0001A60E0E7074A12780848C254FFF7A4FFF2
:1013E000034B012252421A60D5E7C0460044004038
:1013F000000000202401002014010020180100201A
:101400009000002082B00A4B996901221143996132
:1014100099690A400092009ADA69802149050A43D5
:10142000DA61DB690B400193019B02B07047C04653
:101430000010024010B588B004001422002103A857
:1014400001F0DEFA2268164B9A4201D008B010BDB6
:10145000144BD969802292021143D961D969114094
:10146000019101995969114359615B691A400292CE
:10147000029B0C2303930A3B049301330693023B24
:101480000793902003A9C00500F02CF90022002149
:101490001C2000F087F81C2000F0B4F8D6E7C04606
:1014A0000044004000100240FEE7FEE7704770472E
:1014B00010B500F053F810BD10B5024800F07AFDE9
:1014C00010BDC046900000200120704710B501F00B
:1014D0006DFA162303600120404210BD10B50121B2
:1014E0004942FFF7F3FFFEE77047000010B5040024
:1014F0000F4B1978FA208000FEF706FE01000D4B15
:101500001868FEF701FE00F089F800280DD1032CC1
:1015100001D901200AE0013000222100404200F000
:1015200041F8054B1C60002000E0012010BDC046C2
:1015300008000020040000200C00002010B5064A1E
:10154000136810210B4313600020FFF7CFFFFFF754
:1015500059FF002010BDC04600200240034A116818
:10156000034B1B785B1813607047C04628010020AE
:1015700008000020014B18687047C0462801002071
:1015800070B50400FFF7F6FF0500631C02D0044BA2
:101590001B78E418FFF7EEFF401BA042FAD370BDA2
:1015A0000800002070B5002811DB8308134EC033FB
:1015B0009B009D5903242040C000FF22140084405A
:1015C000A54389010A4082402A439A5170BD0F23E6
:1015D0000340083B9B0806339B00094A944663443A
:1015E0005C6803221040C000FC3215008540AC430B
:1015F00089010A40824022435A60E7E700E100E0A7
:1016000000ED00E0002805DB1F2318401E3B83404F
:10161000014A13607047C04600E100E001388023B2
:101620005B0498420FD2094A50600948036A1B02C2
:101630001B0AC02109060B43036200239360073392
:101640001360002070470120FCE7C04610E000E076
:1016500000ED00E010B52123C35C022B06D004236B
:1016600083631C330022C254012010BD026813683A
:101670000E218B43136001680A6801239A430A60B4
:10168000C26B1900046CA1405160212283541F33A6
:101690000022C2540020E8E710B52123C35C022BCE
:1016A00003D004238363012010BD026813680E2158
:1016B0008B43136001680A6801239A430A60C26B76
:1016C0001900046CA1405160212283541F33002271
:1016D000C254436B002B02D098470020E4E700205F
:1016E000E2E70000F0B583B0002357E084685F00B4
:1016F0000326BE40B4432600CC68BC40344384601B
:10170000446894434A681609012232409A402243B1
:10171000426053E0DC080834A400265805321A4021
:1017200092000F279740BE430F6997403A0032431B
:10173000225057E0032600E00026A64034003C4338
:1017400002329200444E9451444A1468EA432600FF
:10175000AE434F68FF0301D52C4326003F4C266063
:101760006468260016404F68BF0301D52C4326004D
:101770003A4C6660A468260016404F68FF0201D507
:101780002C432600354CA660E46822404E68B60221
:1017900001D52A002243314CE26001330C6822005B
:1017A000DA4057D001229A40250015401442F4D067
:1017B00003244E683440013C012C97D903224C6825
:1017C0002240032A09D0C2685E000324B440A24329
:1017D00014008A68B2402243C26003224C6822404F
:1017E000022A97D004685E0003221700B740BC436A
:1017F0004F683A40B24022430260C02292024C68D5
:101800001442CAD0164CA66901221643A661A469E7
:1018100022400192019A9A08941CA4000E4EA759E6
:1018200003241C40A4000F26A640B7439026F605CB
:10183000B04281D00B4EB04208D00B4EB04207D020
:101840000A4EB04200D175E7052676E7012674E717
:10185000022672E703B0F0BD000001400004014021
:10186000001002400004004800080048000C004836
:10187000002A01D0816170478162FCE74269130050
:101880000B401B04914319438161704770B582B0CE
:10189000041E00D138E20368DB072BD5B34B5A682E
:1018A0000C231340042B1DD0B04B5A680C2313405B
:1018B000082B0ED06368012B41D0002B56D1AB4BC7
:1018C0001A68AB490A401A601A68AA490A401A60A5
:1018D0003BE0A64B5B68C0225202134080225202BA
:1018E0009342E7D1A14B1B689B0303D56368002B90
:1018F00000D10CE223689B0777D59C4B5B680C22D8
:101900001A4262D0994B5A680C231340082B53D0CB
:10191000E368002B00D18AE0944A136801210B434D
:101920001360FFF727FE0500904B1B689B0775D4DB
:10193000FFF720FE401B0228F6D90320E5E18B4A81
:10194000116880235B020B4313606368002B25D072
:10195000FFF710FE0500854B1B689B03CAD4FFF7F9
:1019600009FE401B6428F6D90320CEE1052B09D0DF
:101970007E4B1A687E490A401A601A687D490A40FF
:101980001A60E2E7794B19688022D2020A431A6092
:101990001968802252020A431A60D6E7FFF7EAFD6F
:1019A0000500724B1B689B03A4D5FFF7E3FD401BAA
:1019B0006428F6D90320A8E16C4B5B68C022520270
:1019C0001340802212029342A2D1684B1B689B07EE
:1019D00003D5E368012B00D09BE164490B68F82232
:1019E00093432269D20013430B6023681B0744D53D
:1019F000E369002B2ED05D4A536A01210B435362E9
:101A0000FFF7B8FD0500594B5B6A9B0735D4FFF71C
:101A1000B1FD401B0228F6D9032076E153490B683B
:101A2000F82293432269D20013430B60DDE74F4A4B
:101A3000136801218B431360FFF79CFD05004B4B9E
:101A40001B689B07D1D5FFF795FD401B0228F6D9EF
:101A500003205AE1454A536A01218B435362FFF741
:101A600089FD0500414B5B6A9B0706D5FFF782FDA8
:101A7000401B0228F6D9032047E123685B0700D406
:101A800080E03A4BDB69DB001DD4384AD169802005
:101A900040050143D161D36903400193019B0125B6
:101AA000354B1B68DB0510D5A368012B21D0002B1B
:101AB00036D12E4B1A6A01218A431A621A6A0331FF
:101AC0008A431A621AE00025EAE72B4A116880234C
:101AD0005B000B431360FFF74DFD0600264B1B68B0
:101AE000DB05E1D4FFF746FD801B6428F6D903200F
:101AF0000BE11E4A136A01210B431362A368002BFA
:101B000024D0FFF737FD0600184B1B6A9B0737D41C
:101B1000FFF730FD801B194B9842F5D90320F4E004
:101B2000052B09D0114B1A6A01218A431A621A6ADD
:101B300003318A431A62E1E70C4B1A6A04210A4313
:101B40001A621A6A03390A431A62D7E7FFF712FDCD
:101B50000600064B1B6A9B0712D5FFF70BFD801B87
:101B6000064B9842F5D90320CFE0C0460010024052
:101B7000FFFFFEFFFFFFFBFF007000408813000027
:101B8000012D33D02368DB0610D56369012B33D0D8
:101B9000053351D1654A536B04218B435363536B17
:101BA000F4318B43A169C9000B435363236A002BB3
:101BB00000D1B0E05D4A51680C220A40082A00D1E9
:101BC0008AE0022B4FD0594A136859490B401360E1
:101BD000FFF7D0FC0400554B1B689B017AD5FFF73B
:101BE000C9FC001B0228F6D903208EE04F4AD369B6
:101BF00050490B40D361C5E74C4B5A6B04210A4353
:101C00005A635A6B03390A435A63FFF7B3FC050062
:101C1000464B5B6B9B0706D4FFF7ACFC401B0228CE
:101C2000F6D9032071E041494B6BF8229343A26936
:101C3000D20013434B63B9E73C4B5A6B04210A4370
:101C40005A635A6B03398A435A63FFF793FC0500C2
:101C5000364B5B6B9B07A9D5FFF78CFC401B02281A
:101C6000F6D9032051E0314A136831490B40136023
:101C7000FFF780FC05002D4B1B689B0106D5FFF785
:101C800079FC401B0228F6D903203EE0274BDA6A94
:101C90000F218A43E16A0A43DA625A6826490A40F8
:101CA000A16A606A01430A435A601968802252049B
:101CB0000A431A60FFF75EFC04001C4B1B689B0183
:101CC00006D4FFF757FC001B0228F6D903201CE0BE
:101CD00000201AE0002018E0012B1ED0134B5A6898
:101CE000D96AC0235B021340606A834217D10F2375
:101CF0000B40E16A8B4214D1F0239B031A40A36A84
:101D00009A4210D1002000E0012002B070BD0120F5
:101D1000FBE70120F9E70020F7E70120F5E70120C4
:101D2000F3E70120F1E70120EFE7C0460010024091
:101D3000FFFFFFFEFFFFFFEFFF7FC2FF10B588B080
:101D400004AA174B13CB13C21B6813606A46154BCA
:101D500013CB13C21B681360134B5A680C23134038
:101D6000082B02D0114808B010BD910C0733194060
:101D700004A8445C0C49C96A0B406946C95CC0238D
:101D80005B021A4080235B029A4204D00748FEF7A8
:101D9000BBF96043E7E70548FEF7B6F96043E2E7C1
:101DA000202B0008342B00080010024000127A009B
:101DB00070B504000D00002800D17EE0434B1A6886
:101DC000012313408B420AD240490B6801229343FE
:101DD0002B430B600B681A40AA4200D06FE02368C7
:101DE0009A070ED55B0705D5394A5168E023DB0019
:101DF0000B435360364A5368F0218B43A1680B4371
:101E000053602368DB072DD56368012B1ED0022B9E
:101E100022D02F4A1268920753D52D494A680320D1
:101E2000824313434B60FFF7A5FB0600284B5B681A
:101E30000C221A4063689B009A4213D0FFF79AFB6A
:101E4000801B244B9842F1D9032035E0204A1268C8
:101E50009203E2D401202FE01D4A12689201DCD4E3
:101E6000012029E0194B1A6801231340AB4209D91C
:101E700016490B68012293432B430B600B681A40F1
:101E8000AA4220D123685B0706D5114A536812493C
:101E90000B40E1680B435360FFF750FF0C4B5A684F
:101EA00012090F2313400D4AD35CD8400C4B186025
:101EB0000020FFF71BFB002070BD0120FCE7012084
:101EC000FAE70120F8E70120F6E7C04600200240CB
:101ED0000010024088130000FFF8FFFF082B0008E5
:101EE00004000020014B18687047C0460400002021
:101EF00010B5FFF7F7FF044B5A68120A0723134087
:101F0000024AD35CD84010BD00100240182B0008D4
:101F100010B5EFF3108C012282F3108801680B6872
:101F2000124C23400B608CF31088EFF3108C82F37B
:101F3000108801688B6893438B608CF31088036E64
:101F4000012B05D02023C36700230366436610BD21
:101F5000EFF3108183F31088026813683234FF3482
:101F6000A343136081F31088ECE7C046DFFEFFFF58
:101F7000704710B5EFF31081012383F310880268D6
:101F800013684024A343136081F3108820238367E0
:101F900000238366FFF7ECFF10BD704710B5406A61
:101FA00000235A228352083A8352FFF7F6FF10BDEE
:101FB0007047000070B504000268D3691068966825
:101FC000A4491D000D400B4203D1990601D581069D
:101FD00018D4002D07D001210D003540314217D112
:101FE0009D49084214D1216E012900D193E01A06BF
:101FF00002D5020600D522E15B0602D5430600D5D4
:1020000024E170BD636E002BFBD020009847F8E7F9
:10201000D90707D5C10505D501261662802162586A
:10202000324362509A0709D5002D07D02268022159
:1020300011627E3162580426324362505A0709D534
:10204000002D07D02268042111627C3162580226DB
:10205000324362501A070AD5820601D4002D06D0F9
:10206000226808251562802162582A4362501A05A9
:102070000AD5420108D52268802109011162802118
:10208000625820252A4362508022A258002AB8D0E4
:102090009B0606D5830604D5636E002B01D0200075
:1020A00098478023E25823689B685B0602D4282364
:1020B000134229D02000FFF72BFF23689B685B06A3
:1020C0001ED5EFF31081012383F3108822689368F3
:1020D00040208343936081F31088236F002B0BD043
:1020E0005E4A5A63206FFFF7D7FA002800D188E7CD
:1020F000206F436B984784E72000FFF74EFF80E78F
:102100002000FFF74AFF7CE72000FFF746FF80230F
:102110000022E25075E7D90600D468E7C10600D472
:1021200065E71023136223689B685B064FD5226F17
:1021300013685B689BB2002B00D162E75821615A9B
:10214000994200D85DE75A2163529369202B09D147
:102150005823E15A0233E35AC91A89B22000FFF723
:1021600027FF4EE7EFF31080012383F310882168E7
:102170000A683B4D2A400A6080F31088EFF3108014
:1021800083F3108821688A689A438A6080F31088F4
:10219000EFF3108083F3108821688A684235FF3599
:1021A000AA438A6080F310882022E2670022226618
:1021B000EFF3108183F310882268136810208343A3
:1021C000136081F31088206FFFF744FAC0E75823AB
:1021D000E15A0233E25A891A89B2E35A9BB2002BC0
:1021E00000D10EE7002900D10BE7EFF310850123A2
:1021F00083F31088206802681A4E3240026085F32B
:102200001088EFF3108583F31088206882689A4362
:10221000826085F310882022E267002222666266CF
:10222000EFF3108083F31088226813681025AB4306
:10223000136080F310882000FFF7BAFEE1E6A36E7A
:10224000002B00D1DDE620009847DAE62000FFF7FA
:1022500090FED6E60F080000200100049D1F000834
:10226000FFFEFFFFDFFEFFFF10B55C23C35AC26F06
:10227000222A05D00268936908210B43936110BD9F
:102280000268928CDBB21340426D1370436D0133D0
:1022900043655A22835A013B9BB28352835A9BB2B5
:1022A000002BECD1EFF3108C593A82F310880168BF
:1022B0000B68184C23400B608CF31088EFF3108CE4
:1022C00082F3108801688B6893438B608CF31088CD
:1022D0002023C36700234366036E012B17D100231D
:1022E0000366EFF31084013383F3108801680B68F1
:1022F0000F3293430B6084F310880368D9690A4254
:1023000000D01A625823C15AFFF752FEB7E7FFF711
:1023100027F8B4E7DFFEFFFF10B55C23C25AC36F96
:10232000222B05D00268936908210B43936110BDED
:1023300003689B8C1340426D1380436D02334365E9
:102340005A22835A013B9BB28352835A9BB2002B81
:10235000EDD1EFF3108C593A82F3108801680B68C5
:10236000184C23400B608CF31088EFF3108C82F331
:10237000108801688B6893438B608CF3108820234E
:10238000C36700234366036E012B17D10023036646
:10239000EFF31084013383F3108801680B680F3268
:1023A00093430B6084F310880368D9690A4200D014
:1023B0001A625823C15AFFF7FBFDB8E7FEF7D0FFBA
:1023C000B5E7C046DFFEFFFF10B504008368026971
:1023D000134342691343C269134301680A685148B1
:1023E000024013430B60226853684F490B40E16879
:1023F0000B435360226AA3691A4321688B684B48D8
:10240000034013438B602368494A934223D0494ACF
:10241000934231D01023E06980221202904235D0DD
:10242000042B00D176E064D8002B00D16BE0022BA6
:102430005DD1414863685B0818186168FDF764FE68
:102440000004000C0200103A3C4B9A4267D8236803
:10245000D860002053E03A4B1A6B03231340022B41
:102460000CD005D8002B0BD0012B0BD10333D2E7B6
:10247000032B09D1013BCEE70023CCE70823CAE7B1
:102480000023C8E71023C6E71023C4E7042B2BD092
:1024900020D8002B22D0022B1AD127484000636895
:1024A0005B08C0186168FDF72FFE83B20004000CC2
:1024B00001001039214A91422FD80F2293431A006C
:1024C00040080723184010432368D860002016E016
:1024D000012014E0082BE1D0012010E0FFF708FDF7
:1024E0000028DBD100200AE0FFF728FCF8E70120F4
:1024F00005E0082B02D1802000029BE70120002389
:102500006366A36610BDFFF7F3FC002800D091E7D7
:102510000020F4E7FFF712FCF7E70120EFE70120C6
:10252000EDE7C046F369FFEFFFCFFFFFFFF4FFFFCA
:10253000003801400044004000127A00EFFF000024
:1025400000100240436ADB0706D5026853682C4935
:102550000B40816A0B435360436A9B0706D50268B0
:10256000536828490B40C16A0B435360436A5B07B9
:1025700006D50268536824490B40016B0B43536036
:10258000436A1B0706D50268536820490B40416B1C
:102590000B435360436ADB0606D5026893681C4907
:1025A0000B40816B0B439360436A9B0606D5026820
:1025B000936818490B40C16B0B439360436A5B06F9
:1025C0000BD50268536814490B40016C0B435360F0
:1025D00080235B03026C9A420AD0436A1B0606D52D
:1025E000026853680D490B40816C0B435360704780
:1025F000026853680A490B40416C0B435360ECE797
:10260000FFFFFDFFFFFFFEFFFFFFFBFFFF7FFFFF61
:10261000FFEFFFFFFFDFFFFFFFFFEFFFFFFFF7FF12
:10262000FFFF9FFFF8B5CE46474680B506000D0078
:1026300017009946089B98463368DC692C40641B58
:1026400063425C41BC4253D143460133F4D0FEF7B0
:1026500091FF4B46C01A40452CD84346002B29D049
:1026600033681A685207E7D5DA691205E4D5802283
:1026700012011A62EFF31080012282F31088316890
:102680000B681E4C23400B6080F31088EFF3108022
:1026900082F3108831688B6893438B6080F31088D5
:1026A0002023B367F3677F32B35054330022F254D0
:1026B00003201EE0EFF31080012282F310883168BE
:1026C0000B680E4C23400B6080F31088EFF31080F2
:1026D00082F3108831688B6893438B6080F3108895
:1026E0002023B367F36754330022F254032000E041
:1026F0000020C0BCB946B046F8BDC0465FFEFFFF33
:1027000030B583B0040080230022C250FEF732FFB0
:1027100005002268126813070DD423681B685B0745
:1027200016D42023A367E367002323667422A354EF
:10273000002003B030BD80210C4B00930300002229
:1027400089032000FFF76EFF0028E6D00320F0E7A2
:102750008021064B00932B000022C9032000FFF7C5
:1027600061FF0028DDD00320E3E7C046FFFFFF0143
:1027700010B5041E2ED0836F002B21D02423A36715
:102780002268136801218B4313602000FFF71CFEB1
:10279000012814D0636A002B18D1226853680E49AF
:1027A0000B4053602268936808218B439360226832
:1027B000136807390B4313602000FFF7A1FF10BD1A
:1027C00074330022C254FEF735FED7E72000FFF72E
:1027D000B9FEE2E70120F2E7FFF7FFFF416558236A
:1027E000C2520233C25200234366836880225201E0
:1027F000934208D0002B15D10369002B0ED15C3316
:10280000FF22C25215E00369002B03D15C33264A34
:10281000C2520EE05C23FF22C2520AE05C237F22F8
:10282000C25206E08022520593422BD05C23002244
:10283000C25280230022C2505E3BC367EFF3108C6C
:10284000012181F31088026893680B4393608CF335
:10285000108880235B0182689A421ED0134B436626
:1028600074230022C254EFF31081733B83F310886A
:10287000026810682033FF330343136081F310882C
:10288000002070470369002B03D15C337F22C252C2
:10289000CFE75C233F22C252CBE70369002BDDD197
:1028A000034B4366DCE7C046FF01000069220008D5
:1028B0001923000870B5C36F202B2CD100292CD010
:1028C000002A2CD080235B0184689C421CD0742396
:1028D000C35C012B25D074230124C4540023036658
:1028E00003685B681B020CD5EFF3108C012383F3A4
:1028F0001088046825688023DB042B4323608CF355
:102900001088FFF76BFF07E00369002BDFD1CB07CF
:10291000DDD5012000E0022070BD0120FCE7012090
:10292000FAE70220F8E700001348854613480168DB
:10293000090E134A914205D1124813490160134808
:102940001349016013481449144A002302E0D45883
:10295000C4500433C4188C42F9D3114A114C0023DB
:1029600001E013600432A242FBD3FEF7BDFD00F08C
:1029700023F8FEF772FCFEE70018002004000000B8
:102980001F0000001810024001000000000001407C
:10299000000000000000002074000020A42C0008AB
:1029A0007400002030010020FEE70000014B186891
:1029B0007047C0461000002070B500260C4D0D4C2D
:1029C000641BA410A64209D1002600F08DF80A4D20
:1029D0000A4C641BA410A64205D170BDB300EB588D
:1029E00098470136EEE7B300EB5898470136F2E717
:1029F0009C2C00089C2C00089C2C0008A02C000893
:102A000003008218934200D1704719700133F9E72F
:102A100030B50500101E08D00024013A2B5D085D7A
:102A2000834201D1944201D1181A30BD0134002BE8
:102A3000F4D1F9E7062010B500F036F80120FEF7D2
:102A40004DFD002310B59A4200D110BDCC5CC4549A
:102A50000133F8E770B504000D001F2904D91623CF
:102A600003600120404270BD436C002B04D08A00FB
:102A70009B181A68002A08D1200000F031F82A00BB
:102A80000100200000F01AF8EDE70020012AEAD04A
:102A9000511C03D1162301302360E4E700242800F1
:102AA0001C6090472000DEE710B5034B010018685A
:102AB000FFF7D0FF10BDC04610000020002370B506
:102AC000064D0400080011002B60FEF7FFFC431CBC
:102AD00003D12B68002B00D0236070BD2C01002097
:102AE00010B5FEF7F1FC10BDF8B5C046F8BC08BC47
:102AF0009E467047F8B5C046F8BC08BC9E46704775
:102B00007465737400000000000000000000000005
:102B10000102030406070809000000000102030483
:102B200002030405060708090A0B0C0D0E0F10100E
:102B3000000000000102030405060708090A0B0C47
:082B40000D0E0F100000000053
:102B480080070181B0B0AB100000000074B20181B1
:102B5800B0AB30800000000080080181B0B0ABF05D
:102B6800000000003F020181B0AB3080000000008F
:0C2B780080060181B0B0ABF0000000004E
:102B84009CD6FF7F0100000048D7FF7FB0A90280D8
:102B9400DCD7FF7FB0B0A88030D8FF7F01000000F1
:102BA4003CD8FF7FB0B0AA8070D8FF7FA4FFFF7F1E
:102BB40038D9FF7F0100000034D9FF7FAA3F398054
:102BC40080D9FF7FB0B0A8808CD9FF7FB0B0AA8035
:102BD400CCD9FF7FB0B0A880E0D9FF7F010000000E
:102BE400DCD9FF7FB0B0A880E4D9FF7F01000000EA
:102BF40074DAFF7FAA0FB280DCDAFF7F60FFFF7F09
:102C0400C0DDFF7FB0B0A880DCDDFF7F5CFFFF7F0D
:102C14003CE0FF7F01000000ACE1FF7F0084048002
:102C2400BCE1FF7FB0B0A880BCE1FF7F48FFFF7F1D
:102C3400A4E4FF7F00840480C4E4FF7FB0B0A880D4
:102C4400DCE4FF7F00FFFF7F78E5FF7F01000000E9
:102C540074E5FF7FB0B0A880ACE5FF7F00841080EE
:102C6400F6E5FF7FB0B0A88008E6FF7FB0B0AA8089
:102C740044E6FF7F0100000078E6FF7F00840280C5
:102C8400A4E6FF7FB0A90480D4E6FF7FB0B0A8809B
:082C940070E7FF7F0100000062
:042C9C00E900000843
:042CA000C100000867
:102CA400FFFFFFFF00127A00010000000400000093
:102CB40014000020000000000000000000000000DC
:102CC4000000000000000000000000000000000000
:102CD40000000000000000000000000000000000F0
:102CE40000000000000000000000000000000000E0
:102CF40000000000000000000000000000000000D0
:102D040000000000000000000000000000000000BF
:042D140000000000BB
:04000005080029299D
:00000001FF
