:020000040800F2
:1000000000180020F9270008C1140008C3140008D4
:1000100000000000000000000000000000000000E0
:10002000000000000000000000000000C5140008EF
:100030000000000000000000C7140008C9140008F8
:1000400079280008000000007928000879280008B5
:1000500079280008792800087928000879280008FC
:100060000000000079280008792800087928000895
:100070007928000879280008792800080000000085
:10008000792800080000000000000000792800081E
:100090000000000079280008792800087928000865
:1000A00000000000792800080000000079280008FE
:1000B000D1140008000000000000000079280008AA
:1000C00010B5064C2378002B07D1054B002B02D02E
:1000D000044800E000BF0123237010BD740000201D
:1000E00000000000B8290008044B10B5002B03D015
:1000F0000349044800E000BF10BDC04600000000F6
:1001000078000020B8290008002243088B4274D3ED
:1001100003098B425FD3030A8B4244D3030B8B4208
:1001200028D3030C8B420DD3FF22090212BA030C11
:100130008B4202D31212090265D0030B8B4219D3F2
:1001400000E0090AC30B8B4201D3CB03C01A524112
:10015000830B8B4201D38B03C01A5241430B8B425A
:1001600001D34B03C01A5241030B8B4201D30B0343
:10017000C01A5241C30A8B4201D3CB02C01A52416A
:10018000830A8B4201D38B02C01A5241430A8B422D
:1001900001D34B02C01A5241030A8B4201D30B0216
:1001A000C01A5241CDD2C3098B4201D3CB01C01A30
:1001B000524183098B4201D38B01C01A524143093A
:1001C0008B4201D34B01C01A524103098B4201D328
:1001D0000B01C01A5241C3088B4201D3CB00C01A95
:1001E000524183088B4201D38B00C01A524143080D
:1001F0008B4201D34B00C01A5241411A00D2014632
:10020000524110467047FFE701B5002000F006F8A4
:1002100002BDC0460029F7D076E770477047C04658
:1002200003685A0004D5802212061343C018704791
:100230005B005B08FAE7C046F8B557464546DE4620
:100240004E469046E0B50700002924D04B1E9A4642
:10025000994600239B465B464B44DC0FE418641030
:10026000E5007E193000FFF7DBFFA2450CD04045CA
:100270000CD8280008303818FFF7D2FF0138404565
:100280000AD2631C9B46E6E7404505D9A34502D048
:10029000631E9946DFE700263000F0BCBB46B2463D
:1002A000A946A046F8BDC0460300012805D0022893
:1002B00007D00020002B02D070470348FCE703481A
:1002C000FAE70348F8E7C046D1090008C509000865
:1002D000DD09000830B5234B050083B08C1E002BD0
:1002E00026D0200001A900E000BF00281CD0019901
:1002F0002200FFF7A1FF041E16D0FFF791FF6368ED
:10030000A864012B2AD0201D002B23DBFFF788FFD8
:100310000023E8642B650368002B0FDBFFF780FFE9
:100320002861002003B030BD002309202B61F9E7CC
:100330000D480E49091AC9100191D9E71801000F9B
:10034000FFF7B2FF2861431E9841082340429843BB
:100350000930E7E70123E8642B65DCE7002305208B
:100360002B61DFE700000000542A00086C2B000816
:10037000036810B50400DA0705D49B070AD5483096
:1003800000F080FC23685A070AD51A070FD5DB0650
:1003900015D510BD483000F071FC23685A07F4D41D
:1003A0002000D03000F072FC23681A07EFD4200040
:1003B0005130FF3000F06EFC2368DB06E9D42000EA
:1003C000D130FF3000F06AFCE3E7C04609207047F7
:1003D00003000068002800D0C01870477047C0466E
:1003E00070B504000D002000296CFFF773FF002892
:1003F00011D12B6C2A0063612100012023699847E9
:100400000828F0D0072806D10020296CFFF7E6FF66
:10041000281D00F01DFC02F075FAC046F0B5CE466E
:10042000474680B5C368304C9846A54483690400AC
:1004300016000431402205A8994602F06AFA00230A
:10044000049325E0F022149B5200636104A97CA868
:10045000039302F05EFA2100280023697CAA9847E2
:100460008A9B0500039315934B46019304AB0093BD
:100470002200230031000120C047002822D1F022B1
:100480007CA9520004A802F044FA0026082D22D1CB
:10049000149B200019000393FFF71CFF0936070087
:1004A000F5B20028CED0129B1021039315934B4632
:1004B000019304AB00932200230001202943C0478D
:1004C000002800D009273800F5239B009D44C0BCBC
:1004D000B946B046F0BD072DF4D130001499FFF7AE
:1004E0007DFF05A800F0B4FB2CFCFFFF406C7047BB
:1004F00070B5CB6BFAB00B6405000E0040220431DE
:1005000003A802F006FA01235B42029306E02900E9
:100510002B6902AA9847040008280AD1129B2800D8
:1005200019000193FFF7D6FE0028F0D009207AB019
:1005300070BD02A8FFF71CFF062CF7D13100280080
:10054000FFF74EFF10B58261DA6BC1601A641900C3
:100550000022FFF763FF10BD436970B50B64C368E9
:1005600004000D00002B13D10A00236901000220B2
:100570009847072805D008280FD129002000FFF749
:100580002FFF0020296CFFF729FF281D00F060FBDA
:100590000122FFF743FF02F0B5F902F0B3F9C046BC
:1005A000C36810B5002B05D0CB6B00220B64FFF79E
:1005B00035FF10BDFFF79CFFFBE7C0467047C04604
:1005C0008368010010B5002B01D00120984710BDB1
:1005D000012915D00AD8002B10D10F2A0ED892006D
:1005E00082185268009B00201A6006E0012003393F
:1005F000C9B2884280414042013070470220FCE786
:100600000120FAE700B585B003AB0A000093002192
:100610000023FFF7DDFF039805B000BD012915D0C9
:100620000AD8002B10D10F2A0ED8009B92001B680D
:1006300082185360002006E001200339C9B28842C5
:1006400080414042013070470220FCE70120FAE778
:1006500000B585B003AB039200930A00002300218C
:10066000FFF7DCFF05B000BD70B51A4CD36BA54495
:10067000136405000C0019A8111D402202F049F96D
:1006800001235B42189314E00C2118A802AAFFF77B
:10069000DFFF210018A8A847002812D1069B18AA3E
:1006A00002A9083001939847060005280AD00928B6
:1006B00007D0289B02A819000193FFF70BFE002822
:1006C000E2D0092618A8FFF753FE300090239B00C4
:1006D0009D4470BDC0FDFFFFF0B557469246032212
:1006E00045464E46DE4699461300E0B58846CD6C39
:1006F000494689B00340009308CD0695002900D1F2
:1007000080E01A0C1B040593022304A90B73FD332C
:1007100013409B004A73ED18009B022B01D1434606
:100720009D6B43461B6DDB070FD5504605A900F0B6
:100730005BFB002801D1082000E0092009B0F0BCD3
:10074000BB46B246A946A046F0BD2F68002FECD0AC
:1007500008230340029300230193013354469B4630
:100760004646BA464B46022B49D02B886F889A469C
:1007700004355A463B009343B26C0F21904620004B
:100780009844FFF73FFF0023804506D853465A465A
:100790009343434498429B415B4202227F001740AF
:1007A000594652460A401743012F30D0022F4CD0F1
:1007B000002FC2D1009A002A02D0002B00D09BE06B
:1007C00004352B689A46002BCCD1200005A9A246FF
:1007D00000F00AFB0028B0D1019B002BABD00F2109
:1007E0005046FFF70FFF0E2102005046FFF730FF83
:1007F00050460F21724AFFF72BFF07209EE76F68D4
:100800000835B6E71B02059304AB9A8184E7009A8A
:10081000002A49D1002B16D02B68DF0F6B689A1C79
:1008200000D18AE7320058320492013300D1B6E099
:10083000281DFFF7CDFD3A00010004AB300000E0B9
:1008400000BF00286CD10835BBE72A680099570023
:100850007F0800290DD1002B04D0029B002B72D001
:10086000002F3CD0002A00DA04350137BF00ED1913
:10087000A7E7336A0D2120009846FFF7C3FE8045A5
:1008800001D02A68EEE7B36A9D42FAD10023F362F1
:10089000043333632B1DB76273632B68002B00DABC
:1008A00087E001230193E0E70D212000376AFFF77D
:1008B000A9FE8742C7D1B36A9D42C4D1B046A246C1
:1008C0002800FFF7ADFC0F2102005046FFF7C0FEE5
:1008D000504642460021FFF7BBFE07202EE7B046F8
:1008E000A2460D215046FFF78DFE4346049A18623A
:1008F0005A6206209D6221E72800FFF791FC04352B
:10090000A246B5630400300000E000BF002800D11B
:1009100013E7504622000F21FFF79AFE07200DE74C
:10092000A2460D2104005046FFF76CFEB04633008E
:100930003062022C39D1049A2C33F262736243463E
:1009400006209D62FAE62B1D9A46002398465833EE
:100950009C4621004A46B4445446A9468A463D0076
:1009600003924746E0460EE0434620000493FFF71B
:100970002FFD0022010004AB300000E000BF013772
:100980000434002804D1AF42EED14D46B046A8E76A
:100990002F004D46039B544699462A6862E70D2175
:1009A0002000FFF72FFEB04630624346049A5A6299
:1009B000C5E7781C8000B046A246281881E7C046EB
:1009C0000000000010B50023FFF786FE10BDC046F2
:1009D00010B50123FFF780FE10BDC04610B50223FD
:1009E000FFF77AFE10BDC046F0B5CE46474680B54B
:1009F000050014001E00C3B0032944D020D80029EC
:100A000049D0012941D1130C14049846230C99466E
:100A1000012E00D17AE0052E37D144464C44202CDB
:100A200033D843460F2B00D8B5E04C46002C00D0FD
:100A3000C2E04A46A96B20AF002A22D000247FE002
:100A4000042922D1002B20D1102A1ED8102203689D
:100A50001A4200D0C7E020AF380000F021F901268B
:100A600039000023AA6B30009840044201D001CA2B
:100A7000086001330431042BF5D13800AA6300F07B
:100A80000DF9002002E0032B1CD0022043B0C0BCB3
:100A9000B946B046F0BD002BF7D10023012716045C
:100AA000826B360C011D38009840064201D001CA05
:100AB000086001330431102BF5D10020A304E5D4E4
:100AC000AA63E3E71404160C240C3319102BDCD8AA
:100AD000082203681A4200D08CE020AF380000F0F2
:100AE000DBF8F600AB6B002C0AD0F61AE400321FDC
:100AF0001C19BA181900096804339950A342F9D196
:100B00003800AB6300F0C6F80020BFE743464B4413
:100B1000102BBAD843460F2BB7D82B681E4206D0ED
:100B20000322280093432B60483000F0A9F820AF3F
:100B3000380000F0A5F84A460024A96B002A61D0CD
:100B40004346DB00FF180023D200C858F850043396
:100B50009A42FAD18918002C0FD06F4640461028CF
:100B600000D2102000231038C0003818E200CF58FF
:100B7000C75004339342FAD1C918012E41D04346DD
:100B8000A9630F2B45D9002C00D17AE7684600F005
:100B90007DF800207AE7102C46D9103C01222B6802
:100BA0001A4207D093430222280013432B60483097
:100BB00000F06AF8002C39D004222B681A422CD19C
:100BC00043460F2B03D820AF380000F05DF86F4686
:100BD000380000F05DF810224346A96BD21A002AB3
:100BE000BCDD20AFACE793430360D130FF3000F0B1
:100BF00057F830E7934303605130FF3000F04CF872
:100C00006BE720AF04313800A96300F037F800200B
:100C10003CE720A800F036F8B5E7280093432B60A6
:100C2000D03000F035F8CBE70024B7E743460F2B70
:100C300000D9FEE620AF380000F026F84A46A96B3E
:100C4000002A00D0FAE6380000F01CF800201DE76A
:100C50000100343138C9043B9C461D60A6460100A2
:100C600020313CC990469946A246AB460100083166
:100C7000FCC941680068E54600BDC0467047C046F3
:100C80007047C0467047C0467047C0467047C04670
:100C90007047C0467047C0467047C0467047C04660
:100CA0007047C04601B401A801B585B0FFB408A8DB
:100CB00041464A4653465C4665463EC001A83EC88A
:100CC0000F98009000230CB401A9FFF711FC109BB2
:100CD00012B0184701B401A801B585B0FFB408A847
:100CE00041464A4653465C4665463EC001A83EC85A
:100CF0000F98009000230CB401A9FFF72DFC109B66
:100D000012B0184701B401A801B585B0FFB408A816
:100D100041464A4653465C4665463EC001A83EC829
:100D20000F98009000230CB401A9FFF739FC109B29
:100D300012B0184701B401A801B585B0FFB408A8E6
:100D400041464A4653465C4665463EC001A83EC8F9
:100D50000F98009000230CB401ABFFF7F3FB109B3E
:100D600012B0184701B401A801B585B0FFB408A8B6
:100D700041464A4653465C4665463EC001A83EC8C9
:100D80000F98009000230CB401AAFFF76DFC109B94
:100D900012B01847027A0300002A0BD1427A002AC7
:100DA0000FD0013A42724268111D4160032112685E
:100DB000017202E0013A02720268100E12021A6019
:100DC0007047B020FCE7C04600B585B003AB009388
:100DD0000C2200230021FFF7FBFB039805B000BDA8
:100DE00010B5FFF7F1FF10BDF0B54E46454657462A
:100DF000DE460023E0B587B003930F339846083BE7
:100E0000994680231B0305000E009A463000FFF729
:100E1000C1FF0400B02800D1C1E0030629D50300BA
:100E200042469343DBB2802B53D0902B3DD0A02B76
:100E30006BD0B02B00D17EE0C02B00D195E0030039
:100E40004A469343DBB2D02B0AD1534602400132CB
:100E50001A43052301212800FFF7C6FD0028D5D03D
:100E60000924200007B0F0BCBB46B246A946A04604
:100E7000F0BDFF23820013401F1D05AB9B4600936E
:100E80000D22002300212800FFF7A2FB630639D4BE
:100E9000059B9C4667445B460597009300230D2203
:100EA00000212800FFF7BAFBB0E7833B03400D2B7E
:100EB000D6D005AF02400023002128000097FFF79D
:100EC00087FB00230D22002128000097FFF7A6FBD7
:100ED0009CE704023000FFF75DFF802720433F02BC
:100EE000B842BDD004010005020C002300212800F7
:100EF000FFF77AFD0028B3D13C4200D186E70123F9
:100F0000039383E7059BDF1BC5E7FF234A461B01CD
:100F10001900824311410A001A40030702D58023B9
:100F2000DB011A43002300212800FFF75DFD0028A4
:100F300000D16BE794E7B12845D0B22800D19FE0FB
:100F4000B32855D0FC230340B42B00D188E74A4690
:100F50005346024001321A43012101232800FFF7C2
:100F600043FD002800D151E77AE7C6284BD0C728B7
:100F70005DD003004A469343DBB2C02B6CD0C82837
:100F800071D0C92800D06BE73000FFF703FFF023D2
:100F900002031B03134042460240013258E7039B01
:100FA0000024002B00D05CE705AE0E2200212800B3
:100FB0000096FFF70DFB00230F220021280000966A
:100FC000FFF72CFB4DE73000FFF7E4FE021E00D1D7
:100FD00046E7030041468B43DBB2002B00D03FE7DE
:100FE00000212800FFF700FD002800D10EE737E7B9
:100FF0003000FFF7CFFEF02302031B0313404246ED
:1010000002400132A7E73000FFF7C4FEF0230203DD
:101010001B0313404246024001321A4303230321BB
:101020002800FFF7E1FC002800D1EFE618E73000C8
:10103000FFF7B0FE021E00D112E7030041468B43CA
:10104000DBB2002B00D00BE704212800FFF7CCFC1B
:10105000002800D1DAE603E74346A0221C40013411
:1010600012032243DAE73000FFF794FE4346020002
:101070009A43D2B210321840120301300243E8E61C
:1010800005AB00939B460D22002300212800FFF7AB
:101090009FFA3000FFF77EFE03061AD57F27B03C8B
:1010A000059B3840A0409C466044059030000734C2
:1010B000FFF770FE0306F3D481217F2389008C465D
:1010C0000340A340059A62449B1805935B46009336
:1010D000E4E60224F0E7C046030000B5DA6C85B010
:1010E00053680800083219020191029269460322EE
:1010F0001B0E0A734B7301A9FFF776FE05B000BD06
:1011000010B5FFF76DFE806C10BDC04610B5FFF73F
:1011100067FEC26CD07902308000101810BDC04646
:10112000F0B5C64600B588B01422002103A801F02E
:10113000CFFB214B596980200003014359615A6953
:1011400002400092009A596980208002014359614F
:101150005A6902400192019A5A698021C9020A43E0
:101160005A615B690B400293029B8024A401134BDC
:10117000984600222100180000F088FBE027FF00BD
:101180000F4D00223900280000F080FB0394012657
:10119000049600240594069403A9404600F0AEFA94
:1011A000039704960594069403A9280000F0A6FA74
:1011B00008B080BCB846F0BD0010024000080048EE
:1011C0000004004872B6FEE710B50D480D4B0360F1
:1011D000E1235B02436080235B0183600023C360E3
:1011E0008022D20002610C2242618361C3610362EA
:1011F000436201F03BFA002800D110BDFFF7E2FF87
:10120000900000200044004000B591B03022002141
:1012100004A801F05DFB10220021684601F058FB94
:1012200002230493013B07930F33089304A800F0B3
:101230003BFB00280DD10723009300230193029369
:1012400003930021684600F0C1FD002803D111B0CE
:1012500000BDFFF7B7FFFFF7B5FF000010B500F0C6
:1012600079F9FFF7D1FFFFF75BFFFFF7ADFF00F064
:101270000DF880218900044800F00EFBFA204000A0
:1012800000F08AF9F5E7C0460004004870B58026F2
:10129000B6000C4D01223100280000F0F7FA0122BF
:1012A00009490A4801F076FAFA24E400200000F027
:1012B00073F900223100280000F0E8FA200000F065
:1012C0006BF9E4E7000400482401002090000020AE
:1012D00070B505000E000024002011E05208013B0B
:1012E000DBB2002B09D0010051404008C907F5D5F9
:1012F000742149424840C0B2F0E701350134E4B2FC
:10130000B44202D22A780823EBE770BD00B583B05F
:101310000A00094B196800911B7969460B7101F0AD
:10132000DFFA002801D003B000BD80218901034805
:1013300000F0B2FAF7E7C046D029000800080048DC
:1013400030B585B004784578002305E0C21891785F
:1013500001AAD1540133DBB2A342F7D3210001A883
:10136000FFF7B6FFA84201D005B030BD210001A8AB
:10137000FFF7CCFFF8E7000010B50268214B9A4256
:1013800000D010BD204B1B68092B03D91E4B012236
:1013900052421A601C4B1B68002B0ED11B4A12785C
:1013A0001B490A701B49CA540133174A13600122B2
:1013B0001649194801F0EEF9E3E7154A127893420D
:1013C00007DC124A1178134AD15401330E4A1360D4
:1013D000EDE70132934209D00133E8DA0B4B1B7879
:1013E000AA2BE4D1084B00221A60E0E7074A1278E2
:1013F0000848C254FFF7A4FF034B012252421A606F
:10140000D5E7C04600440040000000202401002031
:1014100014010020180100209000002082B00A4B27
:10142000996901221143996199690A400092009AD1
:10143000DA69802149050A43DA61DB690B400193CF
:10144000019B02B07047C0460010024010B588B042
:1014500004001422002103A801F03AFA2268164B76
:101460009A4201D008B010BD144BD9698022920273
:101470001143D961D9691140019101995969114309
:1014800059615B691A400292029B0C2303930A3B49
:10149000049301330693023B0793902003A9C005F0
:1014A00000F02CF9002200211C2000F087F81C20FD
:1014B00000F0B4F8D6E7C0460044004000100240F7
:1014C000FEE7FEE77047704710B500F053F810BD17
:1014D00010B5024800F060FD10BDC046900000202D
:1014E0000120704710B501F0C9F9162303600120EF
:1014F000404210BD10B501214942FFF7F3FFFEE75E
:101500007047000010B504000F4B1978FA208000D6
:10151000FEF7FAFD01000D4B1868FEF7F5FD00F02F
:1015200089F800280DD1032C01D901200AE00130EF
:1015300000222100404200F041F8054B1C600020D1
:1015400000E0012010BDC04608000020040000207B
:101550000C00002010B5064A136810210B431360DD
:101560000020FFF7CFFFFFF759FF002010BDC04656
:1015700000200240034A1168034B1B785B1813607C
:101580007047C0462801002008000020014B186861
:101590007047C0462801002070B50400FFF7F6FF31
:1015A0000500631C02D0044B1B78E418FFF7EEFF24
:1015B000401BA042FAD370BD0800002070B500287F
:1015C00011DB8308134EC0339B009D590324204038
:1015D000C000FF2214008440A54389010A408240D4
:1015E0002A439A5170BD0F230340083B9B080633E2
:1015F0009B00094A944663445C6803221040C00083
:10160000FC3215008540AC4389010A4082402243E8
:101610005A60E7E700E100E000ED00E0002805DBAC
:101620001F2318401E3B8340014A13607047C04689
:1016300000E100E0013880235B0498420FD2094AA0
:1016400050600948036A1B021B0AC02109060B43AC
:10165000036200239360073313600020704701206A
:10166000FCE7C04610E000E000ED00E010B52123EB
:10167000C35C022B06D0042383631C330022C254B4
:10168000012010BD026813680E218B4313600168AE
:101690000A6801239A430A60C26B1900046CA140D6
:1016A0005160212283541F330022C2540020E8E7F6
:1016B00010B52123C35C022B03D0042383630120D4
:1016C00010BD026813680E218B43136001680A681D
:1016D00001239A430A60C26B1900046CA140516057
:1016E000212283541F330022C254436B002B02D0AB
:1016F00098470020E4E70020E2E70000F0B5CE467E
:10170000474680B583B0002333E0032600E000267F
:10171000A64034003C4302329200564E9451564A41
:101720001468EA432600AE434F68FF0301D52C43FB
:101730002600514C26606468260016404F68BF039F
:1017400001D52C4326004C4C6660A4682600164048
:101750004F68FF0201D52C432600474CA660E46881
:1017600022404E68B60201D52A002243424CE26074
:1017700001330C682200DA4077D001229A4025001C
:1017800015401442F4D04C68661E012E03D9112C6A
:1017900001D0122C12D184685F000326BE40B443EE
:1017A0002600CC68BC4034438460446894434A6853
:1017B0001609012232409A4022434260C4685F0009
:1017C0000326BE40F2439446B44326008C68BC40D6
:1017D0003443C4604A68022A01D0122A10D1DE08BC
:1017E0000836B2009146145807221A4092000F267C
:1017F0009640B4430E699640320022434C46225034
:1018000004686246144003224E683240BA402243C4
:1018100002604A68D200ABD5184CA6690122164373
:10182000A661A46922400192019A9A08941CA4001E
:10183000104EA75903241C40A4000F26A640B7430E
:101840009026F605B04200D161E70D4EB04208D0B7
:101850000C4EB04207D00C4EB04200D155E70526E1
:1018600056E7012654E7022652E703B0C0BCB9464A
:10187000B046F0BD000001400004014000100240ED
:101880000004004800080048000C0048002A01D06D
:10189000816170478162FCE7426913000B401B04C1
:1018A000914319438161704770B582B0041E00D125
:1018B00038E20368DB072BD5B34B5A680C2313407F
:1018C000042B1DD0B04B5A680C231340082B0ED0AC
:1018D0006368012B41D0002B56D1AB4B1A68AB4942
:1018E0000A401A601A68AA490A401A603BE0A64BEF
:1018F0005B68C02252021340802252029342E7D119
:10190000A14B1B689B0303D56368002B00D10CE23D
:1019100023689B0777D59C4B5B680C221A4262D0E8
:10192000994B5A680C231340082B53D0E368002BC3
:1019300000D18AE0944A136801210B431360FFF73A
:1019400025FE0500904B1B689B0775D4FFF71EFE14
:10195000401B0228F6D90320E5E18B4A1168802359
:101960005B020B4313606368002B25D0FFF70EFE6C
:101970000500854B1B689B03CAD4FFF707FE401B7D
:101980006428F6D90320CEE1052B09D07E4B1A68D6
:101990007E490A401A601A687D490A401A60E2E7E7
:1019A000794B19688022D2020A431A601968802292
:1019B00052020A431A60D6E7FFF7E8FD0500724BB2
:1019C0001B689B03A4D5FFF7E1FD401B6428F6D9F3
:1019D0000320A8E16C4B5B68C022520213408022B6
:1019E00012029342A2D1684B1B689B0703D5E368A0
:1019F000012B00D09BE164490B68F82293432269D4
:101A0000D20013430B6023681B0744D5E369002B06
:101A10002ED05D4A536A01210B435362FFF7B6FD96
:101A20000500594B5B6A9B0735D4FFF7AFFD401BA0
:101A30000228F6D9032076E153490B68F822934334
:101A40002269D20013430B60DDE74F4A136801217E
:101A50008B431360FFF79AFD05004B4B1B689B07F8
:101A6000D1D5FFF793FD401B0228F6D903205AE198
:101A7000454A536A01218B435362FFF787FD0500F6
:101A8000414B5B6A9B0706D5FFF780FD401B022890
:101A9000F6D9032047E123685B0700D480E03A4B86
:101AA000DB69DB001DD4384AD16980204005014341
:101AB000D161D36903400193019B0125354B1B681C
:101AC000DB0510D5A368012B21D0002B36D12E4B7E
:101AD0001A6A01218A431A621A6A03318A431A6216
:101AE0001AE00025EAE72B4A116880235B000B43CC
:101AF0001360FFF74BFD0600264B1B68DB05E1D4A6
:101B0000FFF744FD801B6428F6D903200BE11E4A31
:101B1000136A01210B431362A368002B24D0FFF743
:101B200035FD0600184B1B6A9B0737D4FFF72EFDC7
:101B3000801B194B9842F5D90320F4E0052B09D0FE
:101B4000114B1A6A01218A431A621A6A03318A43C5
:101B50001A62E1E70C4B1A6A04210A431A621A6AF4
:101B600003390A431A62D7E7FFF710FD0600064B58
:101B70001B6A9B0712D5FFF709FD801B064B984295
:101B8000F5D90320CFE0C04600100240FFFFFEFF62
:101B9000FFFFFBFF0070004088130000012D33D0D1
:101BA0002368DB0610D56369012B33D0053351D18F
:101BB000654A536B04218B435363536BF4318B435E
:101BC000A169C9000B435363236A002B00D1B0E025
:101BD0005D4A51680C220A40082A00D18AE0022B93
:101BE0004FD0594A136859490B401360FFF7CEFC98
:101BF0000400554B1B689B017AD5FFF7C7FC001BFF
:101C00000228F6D903208EE04F4AD36950490B4091
:101C1000D361C5E74C4B5A6B04210A435A635A6B94
:101C200003390A435A63FFF7B1FC0500464B5B6B6F
:101C30009B0706D4FFF7AAFC401B0228F6D9032015
:101C400071E041494B6BF8229343A269D2001343E0
:101C50004B63B9E73C4B5A6B04210A435A635A6BF6
:101C600003398A435A63FFF791FC0500364B5B6BDF
:101C70009B07A9D5FFF78AFC401B0228F6D9032051
:101C800051E0314A136831490B401360FFF77EFC85
:101C900005002D4B1B689B0106D5FFF777FC401B09
:101CA0000228F6D903203EE0274BDA6A0F218A4347
:101CB000E16A0A43DA625A6826490A40A16A606A00
:101CC00001430A435A601968802252040A431A6089
:101CD000FFF75CFC04001C4B1B689B0106D4FFF75C
:101CE00055FC001B0228F6D903201CE000201AE056
:101CF000002018E0012B1ED0134B5A68D96AC0236C
:101D00005B021340606A834217D10F230B40E16AE4
:101D10008B4214D1F0239B031A40A36A9A4210D13C
:101D2000002000E0012002B070BD0120FBE701208F
:101D3000F9E70020F7E70120F5E70120F3E70120AC
:101D4000F1E70120EFE7C04600100240FFFFFFFE71
:101D5000FFFFFFEFFF7FC2FF10B588B004AA174B4B
:101D600013CB13C21B6813606A46154B13CB13C207
:101D70001B681360134B5A680C231340082B02D0C6
:101D8000114808B010BD910C0733194004A8445CF9
:101D90000C49C96A0B406946C95CC0235B021A4002
:101DA00080235B029A4204D00748FEF7ADF96043F6
:101DB000E7E70548FEF7A8F96043E2E7F0290008E5
:101DC000042A00080010024000127A0070B50400D6
:101DD0000D00002800D17EE0434B1A680123134018
:101DE0008B420AD240490B68012293432B430B607C
:101DF0000B681A40AA4200D06FE023689A070ED5FC
:101E00005B0705D5394A5168E023DB000B4353607B
:101E1000364A5368F0218B43A1680B435360236813
:101E2000DB072DD56368012B1ED0022B22D02F4A51
:101E30001268920753D52D494A6803208243134301
:101E40004B60FFF7A3FB0600284B5B680C221A408F
:101E500063689B009A4213D0FFF798FB801B244BCA
:101E60009842F1D9032035E0204A12689203E2D467
:101E700001202FE01D4A12689201DCD4012029E0E4
:101E8000194B1A6801231340AB4209D916490B6854
:101E9000012293432B430B600B681A40AA4220D1C6
:101EA00023685B0706D5114A536812490B40E16865
:101EB0000B435360FFF750FF0C4B5A6812090F2376
:101EC00013400D4AD35CD8400C4B18600020FFF73C
:101ED00019FB002070BD0120FCE70120FAE701207A
:101EE000F8E70120F6E7C04600200240001002405B
:101EF00088130000FFF8FFFFD82900080400002025
:101F0000014B18687047C0460400002010B5FFF769
:101F1000F7FF044B5A68120A07231340024AD35CA6
:101F2000D84010BD00100240E8290008026813687C
:101F30000B490B401360026893682331FF318B43D8
:101F40009360036E012B05D02023C3670023036633
:101F500043667047026813680F318B431360F3E7E1
:101F6000DFFEFFFF704710B50268136840218B4306
:101F700013602023836700238366FFF7F3FF10BD00
:101F8000704710B5406A00235A228352083A8352A0
:101F9000FFF7F6FF10BD704770B504000268D36903
:101FA000106896688B491D000D400B4203D19906BD
:101FB00001D5810618D4002D07D001210D00354030
:101FC000314217D18449084214D1216E012900D130
:101FD0008BE01A0602D5020600D5EFE05B0602D5BB
:101FE000430600D5F1E070BD636E002BFBD02000EE
:101FF0009847F8E7D90707D5C10505D50126166228
:1020000080216258324362509A0709D5002D07D0CB
:102010002268022111627E316258042632436250E6
:102020005A0709D5002D07D02268042111627C319E
:1020300062580226324362501A070AD5820601D43A
:10204000002D06D0226808251562802162582A4397
:1020500062501A050AD5420108D52268802109017B
:1020600011628021625820252A4362508022A258A2
:10207000002AB8D09B0606D5830604D5636E002BD4
:1020800001D0200098478023E25823689B685B06B4
:1020900002D42823134221D02000FFF747FF2368F2
:1020A0009A68520616D59A6840218A439A60236F2F
:1020B000002B0BD0494A5A63206FFFF7F9FA00282A
:1020C00000D190E7206F436B98478CE72000FFF723
:1020D00057FF88E72000FFF753FF84E72000FFF752
:1020E0004FFF80230022E2507DE7D90600D470E73D
:1020F000C10600D46DE710231362226893685B0663
:1021000036D5216F0B685B689BB2002B00D16AE764
:102110005820205A984200D865E75A2023528B69EC
:10212000202B09D15823E15A0233E35AC91A89B244
:102130002000FFF730FF56E7136829490B40136072
:10214000226893680331FF318B4393602268936860
:102150003F318B4393602023E3670023236622688B
:10216000136830398B431360206FFFF77FFAD9E78C
:102170005823E15A0233E05A091A89B2E35A9BB252
:10218000002B00D12FE7002900D12CE71368154858
:1021900003401360226893682330FF3083439360C9
:1021A0002023E367002323666366226813680F30E9
:1021B000834313602000FFF7EEFE14E7A36E002BAD
:1021C00000D110E7200098470DE72000FFF7CBFE75
:1021D00009E7C0460F08000020010004831F000823
:1021E000FFFEFFFFDFFEFFFF10B504005C23C35AB4
:1021F000C26F222A05D00268936908210B439361BC
:1022000010BD0268928CDBB21340426D1370436DB7
:10221000013343655A22835A013B9BB28352835A4E
:102220009BB2002BECD1026813680F490B4013607E
:10223000026893682331FF318B4393602023C36787
:1022400000234366036E012B04D0FFF795F80023AB
:102250002366D5E7026813680F318B431360582358
:10226000C15AFFF798FEF2E7DFFEFFFF10B504004A
:102270005C23C25AC36F222B05D0026893690821E0
:102280000B43936110BD03689B8C1340426D138018
:10229000436D023343655A22835A013B9BB28352FA
:1022A000835A9BB2002BEDD1026813680F490B4093
:1022B0001360026893682331FF318B4393602023BE
:1022C000C36700234366036E012B04D0FFF754F865
:1022D00000232366D6E7026813680F318B4313602F
:1022E0005823C15AFFF757FEF2E7C046DFFEFFFF53
:1022F00010B5040083680269134342691343C2693D
:10230000134301680A685148024013430B60226876
:1023100053684F490B40E1680B435360226AA3693D
:102320001A4321688B684B48034013438B60236832
:10233000494A934223D0494A934231D01023E0695D
:1023400080221202904235D0042B00D176E064D86E
:10235000002B00D16BE0022B5DD1414863685B0824
:1023600018186168FDF7D0FE0004000C0200103A56
:102370003C4B9A4267D82368D860002053E03A4B20
:102380001A6B03231340022B0CD005D8002B0BD063
:10239000012B0BD10333D2E7032B09D1013BCEE74D
:1023A0000023CCE70823CAE70023C8E71023C6E7C9
:1023B0001023C4E7042B2BD020D8002B22D0022BD3
:1023C0001AD12748400063685B08C0186168FDF7B0
:1023D0009BFE83B20004000C01001039214A914297
:1023E0002FD80F2293431A004008072318401043A8
:1023F0002368D860002016E0012014E0082BE1D00B
:10240000012010E0FFF782FD0028DBD100200AE068
:10241000FFF7A2FCF8E7012005E0082B02D180209D
:1024200000029BE7012000236366A36610BDFFF74F
:102430006DFD002800D091E70020F4E7FFF78CFC49
:10244000F7E70120EFE70120EDE7C046F369FFEF72
:10245000FFCFFFFFFFF4FFFF0038014000440040C2
:1024600000127A00EFFF000000100240436ADB0711
:1024700006D5026853682C490B40816A0B435360B0
:10248000436A9B0706D50268536828490B40C16A16
:102490000B435360436A5B0706D5026853682449BF
:1024A0000B40016B0B435360436A1B0706D5026860
:1024B000536820490B40416B0B435360436ADB0672
:1024C00006D5026893681C490B40816B0B439360EF
:1024D000436A9B0606D50268936818490B40C16B96
:1024E0000B439360436A5B060BD50268536814493B
:1024F0000B40016C0B43536080235B03026C9A42D8
:102500000AD0436A1B0606D5026853680D490B4082
:10251000816C0B4353607047026853680A490B4053
:10252000416C0B435360ECE7FFFFFDFFFFFFFEFF35
:10253000FFFFFBFFFF7FFFFFFFEFFFFFFFDFFFFF5F
:10254000FFFFEFFFFFFFF7FFFFFF9FFFF8B5CE464E
:10255000474680B506000D0017009946089B98462F
:102560003368DC692C40641B63425C41BC423DD152
:1025700043460133F4D0FFF709F84B46C01A4045F3
:1025800021D84346002B1ED033681A685207E7D57E
:10259000DA691205E4D5802212011A6232681368E2
:1025A00015490B40136032689368A331FF318B43A8
:1025B00093602023B367F3678022B3505433002223
:1025C000F254032013E0326813680B490B40136088
:1025D00032689368A331FF318B4393602023B36744
:1025E000F36754330022F254032000E00020C0BC03
:1025F000B946B046F8BDC0465FFEFFFF30B583B0B8
:10260000040080230022C250FEF7C0FF05002268AC
:10261000126813070DD423681B685B0716D42023A8
:10262000A367E367002323667422A354002003B04A
:1026300030BD80210C4B0093030000228903200051
:10264000FFF784FF0028E6D00320F0E78021064B47
:1026500000932B000022C9032000FFF777FF00281A
:10266000DDD00320E3E7C046FFFFFF0110B5041EE5
:102670002ED0836F002B21D02423A36722681368F8
:1026800001218B4313602000FFF732FE012814D094
:10269000636A002B18D1226853680E490B405360BF
:1026A0002268936808218B43936022681368073976
:1026B0000B4313602000FFF7A1FF10BD743300220D
:1026C000C254FEF7C3FED7E72000FFF7CFFEE2E7D4
:1026D0000120F2E7FFF7FFFF41655823C2520233A2
:1026E000C25200234366836880225201934208D07D
:1026F000002B15D10369002B0ED15C33FF22C2528F
:1027000015E00369002B03D15C331F4AC2520EE06F
:102710005C23FF22C2520AE05C237F22C25206E001
:102720008022520593421DD05C230022C252802396
:102730000022C2505E3BC3670268936801210B43CD
:10274000936080235B0182689A4216D00F4B4366E8
:1027500074230022C25402681168AC330B43136027
:10276000002070470369002B03D15C337F22C252E3
:10277000DDE75C233F22C252D9E70369002BE5D194
:10278000034B4366E4E7C046FF010000E92100086F
:102790006D22000870B5C36F202B24D1002924D0EE
:1027A000002A24D080235B0184689C4214D07423C7
:1027B000C35C012B1DD074230124C4540023036681
:1027C00003685C68240204D51D688024E4042C435B
:1027D0001C60FFF781FF07E00369002BE7D1CB07FF
:1027E000E5D5012000E0022070BD0120FCE70120BA
:1027F000FAE70220F8E7000013488546134801680D
:10280000090E134A914205D1124813490160134839
:102810001349016013481449144A002302E0D458B4
:10282000C4500433C4188C42F9D3114A114C00230C
:1028300001E013600432A242FBD3FEF761FE00F018
:1028400023F8FEF70BFDFEE700180020040000004F
:102850001F000000181002400100000000000140AD
:10286000000000000000002074000020742B00080D
:102870007400002030010020FEE70000014B1868C2
:102880007047C0461000002070B500260C4D0D4C5E
:10289000641BA410A64209D1002600F08DF80A4D51
:1028A0000A4C641BA410A64205D170BDB300EB58BE
:1028B00098470136EEE7B300EB5898470136F2E748
:1028C0006C2B00086C2B00086C2B0008702B000888
:1028D00003008218934200D1704719700133F9E761
:1028E00030B50500101E08D00024013A2B5D085DAC
:1028F000834201D1944201D1181A30BD0134002B1A
:10290000F4D1F9E7062010B500F036F80120FEF703
:10291000F1FD002310B59A4200D110BDCC5CC45427
:102920000133F8E770B504000D001F2904D9162300
:1029300003600120404270BD436C002B04D08A002C
:102940009B181A68002A08D1200000F031F82A00EC
:102950000100200000F01AF8EDE70020012AEAD07B
:10296000511C03D1162301302360E4E70024280022
:102970001C6090472000DEE710B5034B010018688B
:10298000FFF7D0FF10BDC04610000020002370B537
:10299000064D0400080011002B60FEF7A3FD431C48
:1029A00003D12B68002B00D0236070BD2C010020C8
:1029B00010B5FEF795FD10BDF8B5C046F8BC08BCD3
:1029C0009E467047F8B5C046F8BC08BC9E467047A6
:1029D0007465737400000000000000000000000037
:1029E00001020304060708090000000001020304B5
:1029F00002030405060708090A0B0C0D0E0F101040
:102A0000000000000102030405060708090A0B0C78
:082A10000D0E0F100000000084
:102A180080070181B0B0AB100000000074B20181E2
:102A2800B0AB30800000000080080181B0B0ABF08E
:102A3800000000003F020181B0AB308000000000C0
:0C2A480080060181B0B0ABF0000000007F
:102A5400CCD7FF7F0100000078D8FF7FB0A90280A7
:102A64000CD9FF7FB0B0A88060D9FF7F01000000BF
:102A74006CD9FF7FB0B0AA80A0D9FF7FA4FFFF7FED
:102A840068DAFF7F0100000064DAFF7FAA3F398023
:102A9400B0DAFF7FB0B0A880BCDAFF7FB0B0AA8004
:102AA400FCDAFF7FB0B0A88010DBFF7F01000000DC
:102AB4000CDBFF7FB0B0A88014DBFF7F01000000B7
:102AC400A4DBFF7FAA0FB2800CDCFF7F60FFFF7FD7
:102AD400F0DEFF7FB0B0A8800CDFFF7F5CFFFF7FDC
:102AE4006CE1FF7F01000000DCE2FF7F00840480D2
:102AF400ECE2FF7FB0B0A880ECE2FF7F48FFFF7FED
:102B0400D4E5FF7F00840480F4E5FF7FB0B0A880A3
:102B14000CE6FF7F00FFFF7FA8E6FF7F01000000B7
:102B2400A4E6FF7FB0B0A880DCE6FF7F00841080BD
:102B340028E7FF7FB0B0A88050E7FF7FB0B0AA803D
:102B44008CE7FF7F01000000C0E7FF7F0084028064
:102B5400ECE7FF7FB0A904801CE8FF7FB0B0A88039
:082B6400B8E8FF7F010000004A
:042B6C00E900000874
:042B7000C100000898
:102B7400FFFFFFFF00127A000100000004000000C4
:102B8400140000200000000000000000000000000D
:102B94000000000000000000000000000000000031
:102BA4000000000000000000000000000000000021
:102BB4000000000000000000000000000000000011
:102BC4000000000000000000000000000000000001
:102BD40000000000000000000000000000000000F1
:042BE40000000000ED
:04000005080027F9CF
:00000001FF
