:020000040800F2
:1000000000180020D9180008C1050008C305000821
:1000100000000000000000000000000000000000E0
:10002000000000000000000000000000C5050008FE
:100030000000000000000000C7050008C905000816
:100040005919000800000000591900085919000842
:1000500059190008591900085919000859190008B8
:100060000000000059190008591900085919000822
:100070005919000859190008591900080000000012
:10008000591900080000000000000000591900087C
:1000900000000000591900085919000859190008F2
:1000A000000000005919000800000000591900085C
:1000B000D1050008000000000000000059190008E8
:1000C00010B5064C2378002B07D1054B002B02D02E
:1000D000044800E000BF0123237010BD3C04002051
:1000E00000000000C01B0008044B10B5002B03D01B
:1000F0000349044800E000BF10BDC04600000000F6
:1001000040040020C01B0008002243088B4274D327
:1001100003098B425FD3030A8B4244D3030B8B4208
:1001200028D3030C8B420DD3FF22090212BA030C11
:100130008B4202D31212090265D0030B8B4219D3F2
:1001400000E0090AC30B8B4201D3CB03C01A524112
:10015000830B8B4201D38B03C01A5241430B8B425A
:1001600001D34B03C01A5241030B8B4201D30B0343
:10017000C01A5241C30A8B4201D3CB02C01A52416A
:10018000830A8B4201D38B02C01A5241430A8B422D
:1001900001D34B02C01A5241030A8B4201D30B0216
:1001A000C01A5241CDD2C3098B4201D3CB01C01A30
:1001B000524183098B4201D38B01C01A524143093A
:1001C0008B4201D34B01C01A524103098B4201D328
:1001D0000B01C01A5241C3088B4201D3CB00C01A95
:1001E000524183088B4201D38B00C01A524143080D
:1001F0008B4201D34B00C01A5241411A00D2014632
:10020000524110467047FFE701B5002000F006F8A4
:1002100002BDC0460029F7D076E770477047C04658
:10022000F0B5C64600B588B01422002103A801F03D
:10023000B7FB214B596980200003014359615A697A
:1002400002400092009A596980208002014359615E
:100250005A6902400192019A5A698021C9020A43EF
:100260005A615B690B400293029B8024A401134BEB
:10027000984600222100180000F078FBE027FF00DC
:100280000F4D00223900280000F070FB0394012676
:10029000049600240594069403A9404600F09EFAB3
:1002A000039704960594069403A9280000F096FA93
:1002B00008B080BCB846F0BD0010024000080048FD
:1002C0000004004870B505000E000024002011E075
:1002D0005208013BDBB2002B09D00100514040081D
:1002E000C907F5D5742149424840C0B2F0E701354D
:1002F0000134E4B2B44202D22A780823EBE770BD9D
:1003000000B583B00A00094B196800911B79694652
:100310000B7101F099FB002801D003B000BD8021D2
:100320008901034800F028FBF7E7C046D81B000806
:100330000008004830B585B004784578002305E012
:10034000C218917801AAD1540133DBB2A342F7D38A
:10035000210001A8FFF7B6FFA84201D005B030BDCB
:10036000210001A8FFF7CCFFF8E7000010B50268F4
:10037000214B9A4200D010BD204B1B68092B03D99A
:100380001E4B012252421A601C4B1B68002B0ED1DF
:100390001B4A12781B490A701B49CA540133174A79
:1003A000136001221649194801F064FAE3E7154A7F
:1003B0001278934207DC124A1178134AD154013360
:1003C0000E4A1360EDE70132934209D00133E8DAB7
:1003D0000B4B1B78AA2BE4D1084B00221A60E0E7F4
:1003E000074A12780848C254FFF7A4FF034B0122C2
:1003F00052421A60D5E7C046004400400000002089
:10040000EC040020DC040020E0040020580400205C
:1004100072B6FEE710B50D480D4B0360E1235B0299
:10042000436080235B0183600023C3608022D2008D
:1004300002610C2242618361C3610362436201F085
:1004400085F9002800D110BDFFF7E2FF5804002015
:100450000044004000B591B03022002104A801F012
:100460009FFA10220021684601F09AFA02230493B1
:10047000013B07930F33089304A800F085FA002886
:100480000DD10723009300230193029303930021CE
:10049000684600F00BFD002803D111B000BDFFF746
:1004A000B7FFFFF7B5FF000070B500F0C3F8FFF726
:1004B000D1FFFFF7B5FEFFF7ADFF8026B600144C65
:1004C00001223100200000F051FA80210022C900F1
:1004D000200000F04BFA01220E490F4801F0CAF942
:1004E000FA25ED00280000F0C7F8002231002000B6
:1004F00000F03CFA280000F0BFF880218900044891
:1005000000F03AFAFA20400000F0B6F8F5E7C046ED
:1005100000040048EC0400205804002082B00A4B7C
:10052000996901221143996199690A400092009AE0
:10053000DA69802149050A43DA61DB690B400193DE
:10054000019B02B07047C0460010024010B588B051
:1005500004001422002103A801F022FA2268164B9D
:100560009A4201D008B010BD144BD9698022920282
:100570001143D961D9691140019101995969114318
:1005800059615B691A400292029B0C2303930A3B58
:10059000049301330693023B0793902003A9C005FF
:1005A00000F01CF9002200211C2000F077F81C202C
:1005B00000F0A4F8D6E7C046004400400010024016
:1005C000FEE7FEE77047704710B500F043F810BD36
:1005D00010B5024800F050FD10BDC0465804002080
:1005E0007047000010B504000F4B1978FA20800006
:1005F000FFF78AFD01000D4B1868FFF785FD00F03D
:1006000089F800280DD1032C01D901200AE001301E
:1006100000222100404200F041F8054B1C60002000
:1006200000E0012010BDC0460800002004000020AA
:100630000C00002010B5064A136810210B4313600C
:100640000020FFF7CFFFFFF769FF002010BDC04675
:1006500000200240034A1168034B1B785B181360AB
:100660007047C046F004002008000020014B1868C5
:100670007047C046F004002070B50400FFF7F6FF95
:100680000500631C02D0044B1B78E418FFF7EEFF53
:10069000401BA042FAD370BD0800002070B50028AE
:1006A00011DB8308134EC0339B009D590324204067
:1006B000C000FF2214008440A54389010A40824003
:1006C0002A439A5170BD0F230340083B9B08063311
:1006D0009B00094A944663445C6803221040C000B2
:1006E000FC3215008540AC4389010A408240224318
:1006F0005A60E7E700E100E000ED00E0002805DBDC
:100700001F2318401E3B8340014A13607047C046B8
:1007100000E100E0013880235B0498420FD2094ACF
:1007200050600948036A1B021B0AC02109060B43DB
:100730000362002393600733136000207047012099
:10074000FCE7C04610E000E000ED00E010B521231A
:10075000C35C022B06D0042383631C330022C254E3
:10076000012010BD026813680E218B4313600168DD
:100770000A6801239A430A60C26B1900046CA14005
:100780005160212283541F330022C2540020E8E725
:1007900010B52123C35C022B03D004238363012003
:1007A00010BD026813680E218B43136001680A684C
:1007B00001239A430A60C26B1900046CA140516086
:1007C000212283541F330022C254436B002B02D0DA
:1007D00098470020E4E70020E2E70000F0B5CE46AD
:1007E000474680B583B0002333E0032600E00026AF
:1007F000A64034003C4302329200564E9451564A71
:100800001468EA432600AE434F68FF0301D52C432A
:100810002600514C26606468260016404F68BF03CE
:1008200001D52C4326004C4C6660A4682600164077
:100830004F68FF0201D52C432600474CA660E468B0
:1008400022404E68B60201D52A002243424CE260A3
:1008500001330C682200DA4077D001229A4025004B
:1008600015401442F4D04C68661E012E03D9112C99
:1008700001D0122C12D184685F000326BE40B4431D
:100880002600CC68BC4034438460446894434A6882
:100890001609012232409A4022434260C4685F0038
:1008A0000326BE40F2439446B44326008C68BC4005
:1008B0003443C4604A68022A01D0122A10D1DE08EB
:1008C0000836B2009146145807221A4092000F26AB
:1008D0009640B4430E699640320022434C46225063
:1008E00004686246144003224E683240BA402243F4
:1008F00002604A68D200ABD5184CA66901221643A3
:10090000A661A46922400192019A9A08941CA4004D
:10091000104EA75903241C40A4000F26A640B7433D
:100920009026F605B04200D161E70D4EB04208D0E6
:100930000C4EB04207D00C4EB04200D155E7052610
:1009400056E7012654E7022652E703B0C0BCB94679
:10095000B046F0BD0000014000040140001002401C
:100960000004004800080048000C0048002A01D09C
:10097000816170478162FCE7426913000B401B04F0
:10098000914319438161704770B582B0041E00D154
:1009900038E20368DB072BD5B34B5A680C231340AE
:1009A000042B1DD0B04B5A680C231340082B0ED0DB
:1009B0006368012B41D0002B56D1AB4B1A68AB4971
:1009C0000A401A601A68AA490A401A603BE0A64B1E
:1009D0005B68C02252021340802252029342E7D148
:1009E000A14B1B689B0303D56368002B00D10CE26D
:1009F00023689B0777D59C4B5B680C221A4262D018
:100A0000994B5A680C231340082B53D0E368002BF2
:100A100000D18AE0944A136801210B431360FFF769
:100A200025FE0500904B1B689B0775D4FFF71EFE43
:100A3000401B0228F6D90320E5E18B4A1168802388
:100A40005B020B4313606368002B25D0FFF70EFE9B
:100A50000500854B1B689B03CAD4FFF707FE401BAC
:100A60006428F6D90320CEE1052B09D07E4B1A6805
:100A70007E490A401A601A687D490A401A60E2E716
:100A8000794B19688022D2020A431A6019688022C1
:100A900052020A431A60D6E7FFF7E8FD0500724BE1
:100AA0001B689B03A4D5FFF7E1FD401B6428F6D922
:100AB0000320A8E16C4B5B68C022520213408022E5
:100AC00012029342A2D1684B1B689B0703D5E368CF
:100AD000012B00D09BE164490B68F8229343226903
:100AE000D20013430B6023681B0744D5E369002B36
:100AF0002ED05D4A536A01210B435362FFF7B6FDC6
:100B00000500594B5B6A9B0735D4FFF7AFFD401BCF
:100B10000228F6D9032076E153490B68F822934363
:100B20002269D20013430B60DDE74F4A13680121AD
:100B30008B431360FFF79AFD05004B4B1B689B0727
:100B4000D1D5FFF793FD401B0228F6D903205AE1C7
:100B5000454A536A01218B435362FFF787FD050025
:100B6000414B5B6A9B0706D5FFF780FD401B0228BF
:100B7000F6D9032047E123685B0700D480E03A4BB5
:100B8000DB69DB001DD4384AD16980204005014370
:100B9000D161D36903400193019B0125354B1B684B
:100BA000DB0510D5A368012B21D0002B36D12E4BAD
:100BB0001A6A01218A431A621A6A03318A431A6245
:100BC0001AE00025EAE72B4A116880235B000B43FB
:100BD0001360FFF74BFD0600264B1B68DB05E1D4D5
:100BE000FFF744FD801B6428F6D903200BE11E4A61
:100BF000136A01210B431362A368002B24D0FFF773
:100C000035FD0600184B1B6A9B0737D4FFF72EFDF6
:100C1000801B194B9842F5D90320F4E0052B09D02D
:100C2000114B1A6A01218A431A621A6A03318A43F4
:100C30001A62E1E70C4B1A6A04210A431A621A6A23
:100C400003390A431A62D7E7FFF710FD0600064B87
:100C50001B6A9B0712D5FFF709FD801B064B9842C4
:100C6000F5D90320CFE0C04600100240FFFFFEFF91
:100C7000FFFFFBFF0070004088130000012D33D000
:100C80002368DB0610D56369012B33D0053351D1BE
:100C9000654A536B04218B435363536BF4318B438D
:100CA000A169C9000B435363236A002B00D1B0E054
:100CB0005D4A51680C220A40082A00D18AE0022BC2
:100CC0004FD0594A136859490B401360FFF7CEFCC7
:100CD0000400554B1B689B017AD5FFF7C7FC001B2E
:100CE0000228F6D903208EE04F4AD36950490B40C1
:100CF000D361C5E74C4B5A6B04210A435A635A6BC4
:100D000003390A435A63FFF7B1FC0500464B5B6B9E
:100D10009B0706D4FFF7AAFC401B0228F6D9032044
:100D200071E041494B6BF8229343A269D20013430F
:100D30004B63B9E73C4B5A6B04210A435A635A6B25
:100D400003398A435A63FFF791FC0500364B5B6B0E
:100D50009B07A9D5FFF78AFC401B0228F6D9032080
:100D600051E0314A136831490B401360FFF77EFCB4
:100D700005002D4B1B689B0106D5FFF777FC401B38
:100D80000228F6D903203EE0274BDA6A0F218A4376
:100D9000E16A0A43DA625A6826490A40A16A606A2F
:100DA00001430A435A601968802252040A431A60B8
:100DB000FFF75CFC04001C4B1B689B0106D4FFF78B
:100DC00055FC001B0228F6D903201CE000201AE085
:100DD000002018E0012B1ED0134B5A68D96AC0239B
:100DE0005B021340606A834217D10F230B40E16A14
:100DF0008B4214D1F0239B031A40A36A9A4210D16C
:100E0000002000E0012002B070BD0120FBE70120BE
:100E1000F9E70020F7E70120F5E70120F3E70120DB
:100E2000F1E70120EFE7C04600100240FFFFFFFEA0
:100E3000FFFFFFEFFF7FC2FF10B588B004AA174B7A
:100E400013CB13C21B6813606A46154B13CB13C236
:100E50001B681360134B5A680C231340082B02D0F5
:100E6000114808B010BD910C0733194004A8445C28
:100E70000C49C96A0B406946C95CC0235B021A4031
:100E800080235B029A4204D00748FFF73DF9604394
:100E9000E7E70548FFF738F96043E2E7F81B000889
:100EA0000C1C00080010024000127A0070B504000B
:100EB0000D00002800D17EE0434B1A680123134047
:100EC0008B420AD240490B68012293432B430B60AB
:100ED0000B681A40AA4200D06FE023689A070ED52B
:100EE0005B0705D5394A5168E023DB000B435360AB
:100EF000364A5368F0218B43A1680B435360236843
:100F0000DB072DD56368012B1ED0022B22D02F4A80
:100F10001268920753D52D494A6803208243134330
:100F20004B60FFF7A3FB0600284B5B680C221A40BE
:100F300063689B009A4213D0FFF798FB801B244BF9
:100F40009842F1D9032035E0204A12689203E2D496
:100F500001202FE01D4A12689201DCD4012029E013
:100F6000194B1A6801231340AB4209D916490B6883
:100F7000012293432B430B600B681A40AA4220D1F5
:100F800023685B0706D5114A536812490B40E16894
:100F90000B435360FFF750FF0C4B5A6812090F23A5
:100FA00013400D4AD35CD8400C4B18600020FFF76B
:100FB00019FB002070BD0120FCE70120FAE70120A9
:100FC000F8E70120F6E7C04600200240001002408A
:100FD00088130000FFF8FFFFE01B0008040000205A
:100FE000014B18687047C0460400002010B5FFF799
:100FF000F7FF044B5A68120A07231340024AD35CD6
:10100000D84010BD00100240F01B000802681368B1
:101010000B490B401360026893682331FF318B4307
:101020009360036E012B05D02023C3670023036662
:1010300043667047026813680F318B431360F3E710
:10104000DFFEFFFF704710B50268136840218B4335
:1010500013602023836700238366FFF7F3FF10BD2F
:10106000704710B5406A00235A228352083A8352CF
:10107000FFF7F6FF10BD704770B504000268D36932
:10108000106896688B491D000D400B4203D19906EC
:1010900001D5810618D4002D07D001210D0035405F
:1010A000314217D18449084214D1216E012900D15F
:1010B0008BE01A0602D5020600D5EFE05B0602D5EA
:1010C000430600D5F1E070BD636E002BFBD020001D
:1010D0009847F8E7D90707D5C10505D50126166257
:1010E00080216258324362509A0709D5002D07D0FB
:1010F0002268022111627E31625804263243625016
:101100005A0709D5002D07D02268042111627C31CD
:1011100062580226324362501A070AD5820601D469
:10112000002D06D0226808251562802162582A43C6
:1011300062501A050AD5420108D5226880210901AA
:1011400011628021625820252A4362508022A258D1
:10115000002AB8D09B0606D5830604D5636E002B03
:1011600001D0200098478023E25823689B685B06E3
:1011700002D42823134221D02000FFF747FF236821
:101180009A68520616D59A6840218A439A60236F5E
:10119000002B0BD0494A5A63206FFFF7F9FA002859
:1011A00000D190E7206F436B98478CE72000FFF752
:1011B00057FF88E72000FFF753FF84E72000FFF781
:1011C0004FFF80230022E2507DE7D90600D470E76C
:1011D000C10600D46DE710231362226893685B0692
:1011E00036D5216F0B685B689BB2002B00D16AE794
:1011F0005820205A984200D865E75A2023528B691C
:10120000202B09D15823E15A0233E35AC91A89B273
:101210002000FFF730FF56E7136829490B401360A1
:10122000226893680331FF318B439360226893688F
:101230003F318B4393602023E367002323662268BA
:10124000136830398B431360206FFFF77FFAD9E7BB
:101250005823E15A0233E05A091A89B2E35A9BB281
:10126000002B00D12FE7002900D12CE71368154887
:1012700003401360226893682330FF3083439360F8
:101280002023E367002323666366226813680F3018
:10129000834313602000FFF7EEFE14E7A36E002BDC
:1012A00000D110E7200098470DE72000FFF7CBFEA4
:1012B00009E7C0460F080000200100046310000881
:1012C000FFFEFFFFDFFEFFFF10B504005C23C35AE3
:1012D000C26F222A05D00268936908210B439361EB
:1012E00010BD0268928CDBB21340426D1370436DE7
:1012F000013343655A22835A013B9BB28352835A7E
:101300009BB2002BECD1026813680F490B401360AD
:10131000026893682331FF318B4393602023C367B6
:1013200000234366036E012B04D0FFF71FF8002350
:101330002366D5E7026813680F318B431360582387
:10134000C15AFFF798FEF2E7DFFEFFFF10B5040079
:101350005C23C25AC36F222B05D00268936908210F
:101360000B43936110BD03689B8C1340426D138047
:10137000436D023343655A22835A013B9BB2835229
:10138000835A9BB2002BEDD1026813680F490B40C2
:101390001360026893682331FF318B4393602023ED
:1013A000C36700234366036E012B04D0FEF7DEFF04
:1013B00000232366D6E7026813680F318B4313605E
:1013C0005823C15AFFF757FEF2E7C046DFFEFFFF82
:1013D00010B5040083680269134342691343C2696C
:1013E000134301680A685148024013430B602268A6
:1013F00053684F490B40E1680B435360226AA3696D
:101400001A4321688B684B48034013438B60236861
:10141000494A934223D0494A934231D01023E0698C
:1014200080221202904235D0042B00D176E064D89D
:10143000002B00D16BE0022B5DD1414863685B0853
:1014400018186168FEF760FE0004000C0200103AF4
:101450003C4B9A4267D82368D860002053E03A4B4F
:101460001A6B03231340022B0CD005D8002B0BD092
:10147000012B0BD10333D2E7032B09D1013BCEE77C
:101480000023CCE70823CAE70023C8E71023C6E7F8
:101490001023C4E7042B2BD020D8002B22D0022B02
:1014A0001AD12748400063685B08C0186168FEF7DE
:1014B0002BFE83B20004000C01001039214A914236
:1014C0002FD80F2293431A004008072318401043D7
:1014D0002368D860002016E0012014E0082BE1D03A
:1014E000012010E0FFF782FD0028DBD100200AE098
:1014F000FFF7A2FCF8E7012005E0082B02D18020CD
:1015000000029BE7012000236366A36610BDFFF77E
:101510006DFD002800D091E70020F4E7FFF78CFC78
:10152000F7E70120EFE70120EDE7C046F369FFEFA1
:10153000FFCFFFFFFFF4FFFF0038014000440040F1
:1015400000127A00EFFF000000100240436ADB0740
:1015500006D5026853682C490B40816A0B435360DF
:10156000436A9B0706D50268536828490B40C16A45
:101570000B435360436A5B0706D5026853682449EE
:101580000B40016B0B435360436A1B0706D502688F
:10159000536820490B40416B0B435360436ADB06A1
:1015A00006D5026893681C490B40816B0B4393601E
:1015B000436A9B0606D50268936818490B40C16BC5
:1015C0000B439360436A5B060BD50268536814496A
:1015D0000B40016C0B43536080235B03026C9A4207
:1015E0000AD0436A1B0606D5026853680D490B40B2
:1015F000816C0B4353607047026853680A490B4083
:10160000416C0B435360ECE7FFFFFDFFFFFFFEFF64
:10161000FFFFFBFFFF7FFFFFFFEFFFFFFFDFFFFF8E
:10162000FFFFEFFFFFFFF7FFFFFF9FFFF8B5CE467D
:10163000474680B506000D0017009946089B98465E
:101640003368DC692C40641B63425C41BC423DD181
:1016500043460133F4D0FFF709F84B46C01A404522
:1016600021D84346002B1ED033681A685207E7D5AD
:10167000DA691205E4D5802212011A623268136811
:1016800015490B40136032689368A331FF318B43D7
:1016900093602023B367F3678022B3505433002252
:1016A000F254032013E0326813680B490B401360B7
:1016B00032689368A331FF318B4393602023B36773
:1016C000F36754330022F254032000E00020C0BC32
:1016D000B946B046F8BDC0465FFEFFFF30B583B0E7
:1016E000040080230022C250FEF7C0FF05002268DC
:1016F000126813070DD423681B685B0716D42023D8
:10170000A367E367002323667422A354002003B079
:1017100030BD80210C4B0093030000228903200080
:10172000FFF784FF0028E6D00320F0E78021064B76
:1017300000932B000022C9032000FFF777FF002849
:10174000DDD00320E3E7C046FFFFFF0110B5041E14
:101750002ED0836F002B21D02423A3672268136827
:1017600001218B4313602000FFF732FE012814D0C3
:10177000636A002B18D1226853680E490B405360EE
:101780002268936808218B439360226813680739A5
:101790000B4313602000FFF7A1FF10BD743300223C
:1017A000C254FEF7D3FED7E72000FFF7CFFEE2E7F3
:1017B0000120F2E7FFF7FFFF41655823C2520233D1
:1017C000C25200234366836880225201934208D0AC
:1017D000002B15D10369002B0ED15C33FF22C252BE
:1017E00015E00369002B03D15C331F4AC2520EE09F
:1017F0005C23FF22C2520AE05C237F22C25206E031
:101800008022520593421DD05C230022C2528023C5
:101810000022C2505E3BC3670268936801210B43FC
:10182000936080235B0182689A4216D00F4B436617
:1018300074230022C25402681168AC330B43136056
:10184000002070470369002B03D15C337F22C25212
:10185000DDE75C233F22C252D9E70369002BE5D1C3
:10186000034B4366E4E7C046FF010000C9120008CD
:101870004D13000870B5C36F202B24D1002924D04C
:10188000002A24D080235B0184689C4214D07423F6
:10189000C35C012B1DD074230124C45400230366B0
:1018A00003685C68240204D51D688024E4042C438A
:1018B0001C60FFF781FF07E00369002BE7D1CB072E
:1018C000E5D5012000E0022070BD0120FCE70120E9
:1018D000FAE70220F8E7000013488546134801683C
:1018E000090E134A914205D1124813490160134869
:1018F0001349016013481449144A002302E0D458E4
:10190000C4500433C4188C42F9D3114A114C00233B
:1019100001E013600432A242FBD3FEF761FE00F047
:101920001DF8FEF7C1FDFEE70018002004000000CE
:101930001F000000181002400100000000000140DC
:1019400000000000000000203C040020301C0008C3
:101950003C040020F8040020FEE7000070B50C4DA8
:101960000C4E761BB61005D0002408CD01349847E4
:10197000A642FAD100F024F9074D084E761BB610A6
:1019800005D0002408CD01349847A642FAD170BD95
:10199000241C0008241C0008241C00082C1C00081F
:1019A000F0B50500830749D0541E002A45D0030036
:1019B0000326CAB202E00135013C3ED301332A704E
:1019C0003342F8D1032C30D9FF220A4015021543C7
:1019D0002A0415430F2C34D92700103F3F093E013C
:1019E000B4461E001A0010366644156055609560B6
:1019F000D5601032B242F8D101373F01DB190F2711
:101A00000C22274022403C00002A0ED03E1FB60880
:101A1000B400A4461A001C1D644420C2A242FCD19A
:101A200003240136B6009B193C40002C05D0C9B2F6
:101A30001C19197001339C42FBD1F0BD0300140046
:101A4000C0E72700E2E7C04630B5002A26D00300F1
:101A50000B439B0724D1032A22D9164D0BE0043AED
:101A6000002A1BD0144C1C199C432C4216D1043064
:101A70000431032A14D903680C68A342EFD0047818
:101A80000D78AC4213D1012306E0C45CCD5CAC42BE
:101A90000DD10133934201D0002CF6D1002030BD8E
:101AA00004780D78A54202D1012AECD1F6E7601B3B
:101AB000F5E7C04680808080FFFEFEFE034B10B538
:101AC000002B02D0024800F005F810BD0000000015
:101AD000E51A000810B5010000230022002000F0E4
:101AE00019F810BD70B5074D074C641BA41005D044
:101AF000013CA300EB589847002CF9D100F066F8A0
:101B000070BDC0462C1C0008301C00087047C04641
:101B10007047C046F0B5D6464F464646C0B5264F3C
:101B200082B006003868924698468946FFF7EEFF75
:101B3000224B1B680193A423019A5B00D558002D0A
:101B40002ED06C681F2C30DC002E0FD1631C6B6014
:101B50004B460234A40038686351FFF7D9FF0020D8
:101B600002B0E0BCBA46B146A846F0BD8822514654
:101B70002800A300EB189950873AA2408930FF3023
:101B80000168114301608421404649005850022EEB
:101B9000DCD12B008D33FF3319680A431A60D5E777
:101BA00015004D35FF35D550CBE73868FFF7B0FF4E
:101BB00001204042D4E7C04638040020201C000821
:101BC000F8B5C046F8BC08BC9E467047F8B5C0469C
:081BD000F8BC08BC9E467047FA
:101BD800746573740000000000000000000000003D
:101BE80001020304060708090000000001020304BB
:101BF80002030405060708090A0B0C0D0E0F101046
:101C0800000000000102030405060708090A0B0C7E
:0C1C18000D0E0F10000000001000002056
:081C2400BD1A0008E9000008E8
:041C2C00C1000008EB
:101C3000FFFFFFFF00127A00010000000400000017
:101C400000000000FC02002064030020CC03002000
:101C50000000000000000000000000000000000084
:101C60000000000000000000000000000000000074
:101C70000000000000000000000000000000000064
:101C80000000000000000000000000000000000054
:101C90000000000000000000000000000000000044
:101CA0000000000000000000000000000000000034
:101CB0000000000000000000000000000000000024
:101CC0000000000000000000000000000000000014
:101CD0000000000000000000000000000000000004
:101CE00000000000000000000100000000000000F3
:101CF0000E33CDAB34126DE6ECDE05000B000000B8
:101D000000000000000000000000000000000000D3
:101D100000000000000000000000000000000000C3
:101D200000000000000000000000000000000000B3
:101D300000000000000000000000000000000000A3
:0C2060000000000000000000F40400205C
:04000005080018D9FE
:00000001FF
